:020000040801F1
:1090000048CC00204992010821110208BD0602083F
:10901000250F0208E9B70108095202080000000004
:1090200000000000000000000000000057320208AD
:1090300075BC0108000000008D16020841410208BD
:109040006392010863920108639201086392010828
:109050006392010863920108639201086392010818
:109060006392010863920108639201086392010808
:1090700063920108639201086392010863920108F8
:1090800063920108639201086392010863920108E8
:1090900063920108639201086392010863920108D8
:1090A0006392010863920108639201085D4202081D
:1090B000639201088D4302086392010863920108DC
:1090C00063920108639201086392010863920108A8
:1090D000639201082D51020863920108639201080E
:1090E000EDBC0108639201086392010863920108D4
:1090F0006392010863920108639201086392010878
:1091000063920108852602086392010863920108B0
:109110006392010863920108954402086392010872
:109120006392010863920108639201082DBC010853
:1091300000F002F800F079F80AA090E8000C8244F0
:109140008344AAF10107DA4501D100F06EF8AFF2CD
:10915000090EBAE80F0013F0010F18BFFB1A43F015
:1091600001031847B4700100D47001000A444FF0A5
:10917000000C10F8013B13F0070408BF10F8014B76
:109180001D1108BF10F8015B641E05D010F8016BBB
:10919000641E01F8016BF9D113F0080F1EBF10F81F
:1091A000014BAD1C0C1B09D16D1E58BF01F801CB42
:1091B000FAD505E014F8016B01F8016B6D1EF9D5C5
:1091C0009142D6D3704700000023002400250026DA
:1091D000103A28BF78C1FBD8520728BF30C148BF1A
:1091E0000B607047662915F07D82692900F0348193
:1091F000642900F03181632900F06786732900F04B
:109200006C86002070471FB500F024FF040000208A
:10921000002114F039F8401C60600020002114F097
:1092200049F8E0601FBD10B510BD01F049F81146C6
:10923000FFF7E9FF0FF02EFD01F0E4FA03B4FFF7AA
:10924000F2FF03BC0CF09EFB094880470948004729
:10925000FEE7FEE7FEE7FEE7FEE7FEE7FEE7FEE7E6
:10926000FEE7FEE704480549054A064B7047000043
:10927000054202083191010848C6002048CC002070
:1092800048C8002048C80020704753EA020C00F08C
:1092900069802DE9F04B4FF00006002B1FBFB3FA99
:1092A00083F503FA05F424FA05F65E4012BF16436F
:1092B000B2FA82F502FA05F4C5F120051EBF22FAC2
:1092C00005FC44EA0C04203556EA044C4FEA1444E9
:1092D00018BF641C4FF000084FF00009904271EB7A
:1092E000030C39D3002919BFB1FA81F701FA07F647
:1092F000B0FA80F700FA07F6C7F120071EBF20FA80
:1093000007FC46EA0C062037B6FBF4FCA7EB050782
:10931000103F07F01F0BCBF120060CFA0BFB2CFAC9
:1093200006F644BFB3460026202FA4BF5E464FF08A
:10933000000B5BEA060C08BF4FF0010B19EB0B09A1
:10934000ABFB027C48EB0608C01B06FB02CC0BFB08
:1093500003CC71EB0C01C1E70B460246414648467F
:10936000BDE8F08B13B54FF000004FF00001AFF3F4
:109370000080BDE81C4070470FB4044910B503AA33
:10938000029800F0AFFD10BC5DF814FB1400002043
:109390000FB41CB5074B06AA7B446946009005989C
:1093A00000F071FD0020694600F080FD1CBC5DF8F6
:1093B00014FB0000110B000070B5044685690068BD
:1093C000C10601D5302600E02026C00707D070BDB9
:1093D000D4E9012130469047206A401C20626D1E6E
:1093E000F6D570BD70B5044685690078C00707D111
:1093F00070BDD4E9012120209047206A401C2062E2
:109400006D1EF6D570BD70B50C460546012A05D017
:109410002878800600D5EA69002302E0012305E0F0
:109420005B1C934202D2E05C0028F9D1A869E618DF
:10943000C01AA861286A184428622846FFF7BCFFB2
:1094400004E0D5E9012114F8010B9047B442F8D3A8
:109450002846FFF7C7FF70BD2DE9F04106460024FE
:1094600010687529314616A510D0AFF3008000288A
:1094700002DA404213A507E031688A0701D512A538
:1094800002E0490704D511A5012401E0AFF30080F3
:1094900000210A2206F1240709E0B0FBF2FCB0FB30
:1094A000F2F302FB1C00303078541846491C0028A7
:1094B000F3D123462A463046BDE8F04100F075BAA4
:1094C000000000002D0000002B0000002000000024
:1094D0002DE9F05F894604464FF0000ADFF874B1C9
:1094E000FB44C0F820A02046E1688847002874D0DB
:1094F000252806D0D4E901219047206A401C20622B
:10950000F1E700265F462046E168884720280546A7
:1095100007DB312D05D2781910F8200C08B106436D
:10952000F1E7B00701D526F00406C4F81CA0002717
:10953000C4F818A02A2D09D028460CF01CFA38B31C
:1095400004EB8708303DC8F8185019E059F8041B9F
:10955000204604EB87029161E1688847012F0546A8
:1095600018D1E069002820DA26F020061DE0D8F89E
:10957000180000EB800005EB40003038C8F81800F8
:109580002046E168884705460CF0F5F90028EED141
:10959000012F0AD02E2D08D12046E16888477F1C74
:1095A0000546022F46F02006C4DBA069002803DA36
:1095B000404246F00106A061F00701D026F01006F7
:1095C0006C2D0BD0682D09D04C2D39D06A2D35D09B
:1095D000742D35D07A2D33D016E038E0E1682F466F
:1095E00020468847B842054609D16C2F26D04FF453
:1095F0008060E168064320468847054604E06C2FFA
:109600001AD04FF4807006430DB3A5F1410019281C
:1096100002D8203546F400664A4629462046266090
:109620004E46FFF7DFFD80B101280BD0F61D26F076
:10963000070000F1080956E74020E4E78020D8E75A
:109640000020D6E706F104094DE7284652E7206AD4
:10965000BDE8F09F4C68010070B5064600F096F931
:109660000468054630460A22002100F002F82C600A
:1096700070BD2DE9F04791460F468046044600260E
:1096800014F8015B2DB100F079F90068405DC00766
:10969000F6D12B2D02D02D2D18D0641E4A46394606
:1096A000204600F031FC27B13968A14201D1C7F84A
:1096B00000804FF0020471050BD54042002803DD05
:1096C00000F064F90460A007BDE8F08746F4806606
:1096D000E4E70028F8DA00F059F904606FF0004080
:1096E000F2E7401ECAB210F8011F8A4202D00029D8
:1096F000F9D10020704730B505460B462A4613F8CD
:10970000014B12F8010B08B1A042F8D01CB100289F
:1097100002D06D1CF1E7284630BD40EA0103024645
:1097200030B59B0710D14FF0013400E008C208C9E2
:109730001D1B9D4315EAC41FF8D013F0FF0102F86A
:10974000011B0DD01B0AF8E711F8013B002B02F8B2
:10975000013B05D011F8013B002B02F8013BF3D18E
:1097600030BD10B5431C02E010F8011B71B1810738
:10977000FAD14FF0013202C88C1A8C4314EAC2119C
:10978000F9D0C01A0A0603D0C01E10BDC01A10BD01
:109790000A0401D0801E10BD0902FCD0401E10BD7D
:1097A000421E12F8013F002BFBD111F8013B002BA8
:1097B00002F8013BF9D17047032A40F2308010F0E3
:1097C000030C00F0158011F8013BBCF1020F62445C
:1097D00098BF11F801CB00F8013B38BF11F8013BED
:1097E000A2F1040298BF00F801CB38BF00F8013B9A
:1097F00011F0030300F02580083AC0F0088051F80A
:10980000043B083A51F804CBA0E80810F5E7121D14
:109810005CBF51F8043B40F8043BAFF30080D20733
:1098200024BF11F8013B11F801CB48BF11F8012BFF
:1098300024BF00F8013B00F801CB48BF00F8012B22
:10984000704710B5203AC0F00B80B1E81850203AAC
:10985000A0E81850B1E81850A0E81850BFF4F5AFD0
:109860005FEA027C24BFB1E81850A0E8185044BF5A
:1098700018C918C0BDE810405FEA827C24BF51F8C7
:10988000043B40F8043B08BF7047D20728BF31F8BB
:10989000023B48BF11F8012B28BF20F8023B48BF0C
:1098A00000F8012B70474FF0000200B513469446B4
:1098B0009646203922BFA0E80C50A0E80C50B1F128
:1098C0002001BFF4F7AF090728BFA0E80C5048BF3C
:1098D0000CC05DF804EB890028BF40F8042B08BFDA
:1098E000704748BF20F8022B11F0804F18BF00F8D6
:1098F000012B70474FF0013C50F8042B51F8043B0A
:109900009A4221D1A2EB0C03934313EACC1317D153
:1099100050F8042B51F8043B9A4215D1A2EB0C03EA
:10992000934313EACC130BD150F8042B51F8043BAA
:109930009A4209D1A2EB0C03934313EACC13DBD078
:109940004FF00000704700BFD01A01BAB1FA81F1A0
:1099500001F0180122FA01F0CB40C1F12001DBB285
:10996000C0B2C01A2CFA01F3D11A914311EAC31103
:10997000E6D17047704770477047704710B500F0E8
:1099800069FB001D10BD00BF013901000048704790
:10999000E8C5002010B5FFF7F9FF006810BD10B54D
:1099A0000446FFF7F3FF046010BD2DE9F0470D46B4
:1099B00099469246044600F124080168880604D5B9
:1099C000E06921F01001216000E00120A84201DDE2
:1099D000471B00E00027A1697A1902EB0900081A69
:1099E000A0612078C00602D42046FFF7E5FC0026DF
:1099F00008E0D4E901211AF806009047206A401CCB
:109A0000761C20624E45F4DB2078C0060AD520463D
:109A1000FFF7D2FC06E0D4E9012130209047206A0C
:109A2000401C2062381EA7F10107F4DC07E0D4E9EE
:109A3000012118F805009047206A401C2062281E6A
:109A4000A5F10105F3DC2046FFF7CCFC20780006E9
:109A500002D50220BDE8F0870120FBE770472DE921
:109A6000FF4F0C461E464FF0FF378BB0D2E9000186
:109A7000DDF860800A908A46C1F30A5505B93D4673
:109A8000002108464FF00000BAF1000F00F440003A
:109A900005DA00EB80004FF4400101EA50004FEA84
:109AA0009059B9F1010F00DDB9460A9850EA4A0011
:109AB0000ED044F61050A5F2FF3545432F14B8F1EF
:109AC000000F1ED07542291E1EDDC9F100021CE0E8
:109AD000B8F1010F4FF0000001D0302103E0F24354
:109AE00005E02154401CB042FBDB3046002200213F
:109AF00021540B99C1F80880C1E900200FB0BDE8DE
:109B0000F08FBD1B6D1CDEE74A4600DA694206A8ED
:109B100000F060FB06AB93E8070003AB83E80700A7
:109B200050460A9901F0B5F88DE80700A0F50050FD
:109B30001F3800900398002D0ADD42F21F014A46AB
:109B40000844002303A90390684601F061FB09E083
:109B5000A0F500504A461F38002303A90390684629
:109B600001F080FB8DE807000004000C03D04FF0EB
:109B7000FF30410800E01046B8F1000F03D000228A
:109B8000009215461EE0751E05D400F067FA3032CB
:109B900062556D1EF9D5B3460122084302D000225A
:109BA0007F1C04E02078302801D100227F1E002A8B
:109BB000099784D01DE0112D07DA00F04FFA3032FA
:109BC00062556D1C50EA0102F5D1084302D000989D
:109BD000C8B10EE00021681E05E0235C625C63549E
:109BE0002254401E491C8142F7DBAB46A81B401E95
:109BF0000990002004F80B000B98099AC0F808801F
:109C0000C0E9002B7AE711264FF0000857E72DE94D
:109C1000F04F88460446D21D22F0070191B0D1E9E9
:109C20000001CDE90A010BF0F1FA02460B98C00FD2
:109C300001D02D2007E02068810701D52B2002E00C
:109C4000202101EAC000032A099001D0072A05DB80
:109C500003464146204600F04FFA0BE1207880068B
:109C600001D5E06900E00620B8F1650F814606D015
:109C7000B8F1660F18D0B8F1670F70D131E000204D
:109C8000B9F1110F009001DB112301E009F101038B
:109C90000AAA01A90CA8FFF7E2FEDDE90C70002674
:109CA00009F10105834647E001204B4600904FF043
:109CB00000470AAA01A90CA8FFF7D1FEDDE90DB003
:109CC0000C995D46002610B909F101000D18B9EB99
:109CD000050003D4C0F1FF3609F10105A5EB090029
:109CE0002BE0B9F1010F01DA4FF001090020B9F1C1
:109CF000110F0090484601DD112300E003460AAA37
:109D000001A90CA8FFF7ABFEDDE90C704D4600265B
:109D10008346207800070AD4AB4500DA5D4601A8E7
:109D2000012D04DD411911F8011C302907D04F45E0
:109D300002DA17F1040F04DA012082460FE06D1EEB
:109D4000EEE7002F02DCED1B3E4403E0781CA84246
:109D500000DD7D1CB81B00F1010A4FF000472078A0
:109D6000000703D4AA4501DB4FF0FF3A0021B7F109
:109D7000004F0DF143088DF8431024D002202B230F
:109D8000002F01DA7F422D230A21021EA0F10100DB
:109D900000DC5FB197FBF1FC97FBF1F201FB1C7C4F
:109DA00017460CF1300C08F801CDEEE7A8F10100E0
:109DB00003702188090501D5452100E06521A0F146
:109DC000010800F8011C09980FA9A1EB0807FF1D65
:109DD00000B10120411901EBEA70A1693844081A69
:109DE000401EA0612078C00602D42046FFF7E4FAA6
:109DF000099828B1D4E901219047206A401C2062CB
:109E00002078C00622D52046FFF7D6FA1EE0002EA5
:109E100004DBB34502DD01A8805D00E03020D4E919
:109E200001219047206A401C2062761CAAF10100A3
:109E30005FEA000A0AD100F00DF9C0680168405CD1
:109E4000D4E901219047206A401C2062281EA5F118
:109E50000105DCDC07E0D4E9012118F8010B90478B
:109E6000206A401C2062381EA7F10107F3DC20465F
:109E7000FFF7B8FA032011B041E6000001694A1C5F
:109E800002610878704700B58FB0CDE9013100213B
:109E9000059105497944CDE9031011466846FFF75D
:109EA00017FB0FB000BD0000E5FFFFFF0A6802F8D6
:109EB000010B0A60704710B5436913B1AFF300801E
:109EC00001E0FFF7A0FA012010BD127800F1240193
:109ED0000A7000224A700122EDE711684FF0FF324C
:109EE000E9E70000074B70B50D467B44FFF7CBFF59
:109EF0000446284600F0E0F910B14FF0FF3070BD85
:109F0000204670BDCBE000002DE9F05F824615468B
:109F10008B4600270AF10104B9460078302801D0A9
:109F20009DB113E014F8010B0127782803D05828BD
:109F300001D045B10AE00DB1102D07D1002714F86A
:109F4000010B102502E0082500E00A250026B04696
:109F50000EE005FB080005FB06F101271FFA80F85B
:109F600001EB1046B6F5803F00D3B94614F8010B5B
:109F7000294600F001F90028EBDABBF1000F05D00B
:109F80000FB1641E00E05446CBF80040B9F1000F59
:109F900006D0FFF7FBFC02210160C81EBDE8F09F60
:109FA00048EA0640FAE700000FB4002300B589B084
:109FB0000CA900910B99CB60214B7B440693214B5C
:109FC0007B44079304236FF00042CDE901321E4A1F
:109FD0007A446B4608920246002014F0E5FB09B073
:109FE0005DF814FB70B506464FF0FF3015460C4681
:109FF000324686B00091CDE9010169460020049007
:10A0000004A8FFF7D1FF02460498211825B108B132
:10A01000084600E020462860049800280DD0002A59
:10A0200002DD0098884208D03246081B6946009439
:10A03000CDE9010404A8FFF7B7FF06B070BD00002A
:10A04000D7010000EF010000130100000048704735
:10A05000E8C500200048704708C6002030B5B0F1C0
:10A060000A024FEA900E71F100034EEA817EB0EBD6
:10A070000E0061EB91014FEA101E4EEA017E10EBDB
:10A080000E0041EB11114FEA102E4EEA016E10EB5B
:10A090000E0041EB11214FEA104E4EEA014E10EB3B
:10A0A0000E0041EB1141401841F100014FEAD00090
:10A0B00040EA41704FEAD10110EB80054FEA81047C
:10A0C00044EA907444EB01046D1944EB0404521B00
:10A0D000A3414FF0000348BF0A3200D530BD401CF9
:10A0E00041F1000130BD10B50446FFF747FC0068A0
:10A0F000005D00F0010010BD2DE9F0411F4604464F
:10A1000003260168072A01F4006004DB08B116A5E4
:10A1100005E016A503E008B115A500E015A521F09E
:10A1200010002060A069C01EA0610FB1401EA06198
:10A130002046FFF741F94FB1D4E901213846904755
:10A14000206A401C2062C01C206206E0206AFAE7F8
:10A15000D4E9012115F8010B9047761EF8D220466C
:10A16000FFF740F9BDE8F0814E414E006E616E0090
:10A17000494E4600696E66003A2800D2303820F019
:10A180002002412A01D3A2F13700884201D34FF0C7
:10A19000FF307047426842B1016811F8013B23B1BA
:10A1A000521EC0E90012184670470121C160881E86
:10A1B000704742685AB1C368016843B983688B42EB
:10A1C00005D0491E521CC0E90012002070474FF014
:10A1D000FF3070472DE9F047814616468AB0354872
:10A1E00078440DC88DE80D0032487844801C03ACDB
:10A1F0000DC884E80D0041F69B300844372190FBE0
:10A20000F1F290FBF1F5A5F1800501FB12041B3C76
:10A2100002D56442012000E00020DFF898A08046CB
:10A220000027FA44AAF1BE0A0EE0E0070AD032463F
:10A23000684607EB470101230AEB810101F012F8A0
:10A240008DE8070064107F1C002CEED1194F7F446D
:10A25000AE3F19E0E80715D007EB04100DF1180A1E
:10A2600090E80E008AE80E00C068F04201D198190B
:10A2700008903246012306A903A800F0F3FF03ABC0
:10A2800083E807006D10641C002DE3D14FF001033B
:10A2900032466946B8F1000F03A802D000F0B8FFBB
:10A2A00001E000F0DFFFC9E90001C9F808200AB0A9
:10A2B000BDE8F087285E0100007B00F08000704759
:10A2C0007546FFF7C3FEAE4605006946534620F0CB
:10A2D0000700854618B020B5FEF7C4FFBDE8204052
:10A2E0004FF000064FF000074FF000084FF0000B52
:10A2F00021F00701AC46ACE8C009ACE8C009ACE805
:10A30000C009ACE8C0098D46704700002DE9FF4F39
:10A3100006468BB00878FF2806D0491C2D2805D0AA
:10A3200000244FF0000908E000200CE00124F8E7C9
:10A3300009EB8903491C00EB43090878FF28F7D192
:10A3400014B1C9F100008146107800252C46AA46B8
:10A3500029462D2801D02B2804D1521C2D2813D09A
:10A36000002082468B461078FF280FD04FF0000C5B
:10A370000A21521CA5FB017804FB018105FB0C118D
:10A38000C5194BEB0104EEE70120EAE7002108467E
:10A390004FF00000BAF1000F02D000EB800040083F
:10A3A000C0F38157012F01DD4FF0FF370E9955EAB9
:10A3B000040009EB01080BD04FF0020918F5FA7FF1
:10A3C00016DA4FEACA70002F706008DD012007E03E
:10A3D0004FEACA70C6E900B00FB0BDE8F08F0020A8
:10A3E0003060FFF7D3FAC0F800901821084616E055
:10A3F000B8F5FA7F18DD002F02DAF748784401E05B
:10A40000F6487844D0E90010C6E9001040EACA7066
:10A410007060FFF7BBFAC0F80090142108460FB037
:10A42000BDE8F04F14F05BB9002108464FF0000082
:10A43000B8F10001099002DAC7F1000200E03A46E3
:10A4400001DAC8F1000106A8FFF7C4FE06AB93E8E5
:10A45000070003AB83E8070044F23E005BEA040117
:10A460000090584604D144F21E012C465D460091EE
:10A47000210C0904014306D10099240444EA15443F
:10A480002D041039009104F07F41014306D1009959
:10A49000240244EA15642D020839009104F0704149
:10A4A000014306D10099240144EA15742D01091FC6
:10A4B000009104F04041014306D10099A40044EA10
:10A4C0009574AD00891E009104F00041084304D149
:10A4D00000986D196441401E00904FF001033A4608
:10A4E0006846B8F1000FCDE9014503A902DD00F08F
:10A4F000CEFE01E000F0A1FEBAF1000F04460D46C9
:10A5000001D084F00044002108464FF00000099972
:10A5100040F2FF77484010F00C0F07D124F00040C4
:10A52000284303D0C4F30A50B84212D1FFF72EFAE1
:10A53000C0F80090C4F30A50B8420AD1A848784441
:10A54000D0E90010C6E9001004F000410843706033
:10A5500042E7C6E900543FE72DE9FF4F1F464FF0A1
:10A56000000A4FF0FF38454691B0D7E90146CDF8D3
:10A570003CA0FFF76FFDC0680168405C1090B969AE
:10A5800012986D1C8847396A814688470028F6D1A1
:10A59000B9F1FF3F0AD0002E24F4D06411DDB9F1E7
:10A5A0002B0F08D0B9F12D0F0BD102E0404615B0AA
:10A5B00013E744F48064B96912986D1C8847761ECD
:10A5C0008146600504A901D52D2000E02B20002E36
:10A5D00001F1010B0DF130088DF810003FDDB9F1EC
:10A5E000690F08D0B9F1490F05D0B9F16E0F02D04B
:10A5F000B9F14E0F1CD13B4601A8009580E85002EE
:10A60000DDE912126FF0020014F0D2F8C11CCED1B5
:10A610000EE0B96912986D1C884781461398761E22
:10A6200044F4007405600F98401C002E0F9016DD56
:10A63000B9F1300FEDD0B9F1780F02D0B9F1580F60
:10A640000DD10F9801280AD13B46CDE90054DDE930
:10A650001212001F029614F0A9F8C11CA7D110997C
:10A6600089453ED144F0800406E01399681CAAF1A4
:10A67000010A44F400740860B9696D1C1298761ED2
:10A68000884730288146F0D02BE01099894505D1C4
:10A69000200603D4761E44F0800418E048460BF0F0
:10A6A0006AF908B3761E0DF123018B4544F400745A
:10A6B00008D2A9F130000BF8010B200607D5AAF14A
:10A6C000010003E0200602D40AF101008246A00541
:10A6D00002D51399681C0860B96912986D1C8847E7
:10A6E0008146002ED1DC53E0002E51DDB9F1650F1B
:10A6F00002D0B9F1450F4BD1A00549D5B9696D1C00
:10A700001298761E24F440748847002E81460CDD92
:10A710002B2804D0B9F12D0F07D144F48074B96906
:10A7200012986D1C8847761E8146E00501D52D21C3
:10A7300000E02B2108F8011BCDF8008021E0761EF7
:10A740000DF13901884544F400740CD2A9F13000B0
:10A7500010F0FF0088F8000002D10099884509D95F
:10A7600008F1010806E0E00501D51E4801E042F2CB
:10A770000F708246B96912986D1C884781461398FC
:10A780000560002E04DD48460BF0F5F80028D6D110
:10A79000F96912988847FF2053468BF8000088F823
:10A7A000000000200A900B9004AA0CA90AA8FFF749
:10A7B000ADFDA00502D46FF00100F8E614F0240FFF
:10A7C00012D0E0071CD13868DDE90A12031D3B6096
:10A7D0000068C0E9001213E0405E0100325E010033
:10A7E000F65C0100F1D8FFFF0AA968460BF052F8A9
:10A7F000E00705D13868009A011D396000680260E1
:10A800002846D4E610B50446AFF300802046BDE8E4
:10A810001040FEF713BD00002DE9FF4F1F464FF01B
:10A820003C0987B04FF00042DDE9141001F1010846
:10A83000DDF858A002EA40500390002005908346BE
:10A84000054604460490B969461E08988847AAF14F
:10A85000010A0290BAF1000F3BDD02982E2815D0B4
:10A860001021FFF789FC00282EDB4FF0010B059922
:10A87000014317D0B9F1000F0BDB4A46C11700F0B6
:10A88000F5F905430C43A9F1040905E00120049002
:10A890000BE008B145F0010501200590049820B9AE
:10A8A000361D02E0049800B1361FB969089808F116
:10A8B00001088847BBF1000FAAF1010A0290C9D034
:10A8C0000999C1F80080C5E70298702808D050287F
:10A8D00006D0F96908988847BBF1000F14D04FE003
:10A8E000002002900120BBF1000F049009D0B9694B
:10A8F000089808F101088847AAF10109B9F1000F89
:10A9000007DCF969089888476FF001000BB0BDE8D3
:10A91000F08F2B2804D02D280CD14FF0FF3004905D
:10A92000B969089808F101088847A9F10109B9F146
:10A93000000FE6DD411CE4D00A21FFF71DFC0028D2
:10A94000DFDB029908F1010801EB810100EB410016
:10A950000290B969089888470A21FFF70DFC099A07
:10A96000A9F10109B9F1000FC2F8008001DD00284A
:10A97000E7DAF969089888470499029800FB0166AC
:10A9800055EA040004D004F04041090002D006E07A
:10A99000039898E0A40044EA9574AD00B61E04F054
:10A9A0000041080002D16D196441761E159810F01F
:10A9B000240F03D04FF00B095C4803E04FF0280947
:10A9C0006FF07D008246564507DAAAEB06018944FE
:10A9D000B9F1410F01DD4FF0410901200021A9F13A
:10A9E000010200F043F9024628400B46214008438B
:10A9F00001D0012100E00021501E029143F1FF31FE
:10AA000028402140084301D0012000E000200299A5
:10AA1000834651EA0B014FD0002108464FF0000059
:10AA2000039900F4400039B100EB80004FF440017D
:10AA300000EBD07001EA60008015012802DD4FF0C4
:10AA4000FF3000E013D0401C36D0029860B3BBF159
:10AA5000000F0CD14A460120002100F007F92840E0
:10AA60002140084301D0012000E00020E0B1012096
:10AA70004A46002100F0FAF8034640190A466141AF
:10AA80002D1A8C4111D3B9F1400F09DD159810F042
:10AA9000240F02D0AAF1340603E0AAF1170600E061
:10AAA000761C00254FF0004406E05B1E42F1FF32A9
:10AAB00020EA030521EA0204CAF10100B04206DAE5
:10AAC0001B49039808430190002000900EE0039A70
:10AAD000C4F3D321E80A0A43164940EA44500A4322
:10AAE0003146CDE9000268460AF03AFF159810F0A9
:10AAF000240F0BD01598C00715D13868DDE9001276
:10AB0000031D3B600068C0E900120CE002A8694622
:10AB10000AF0C0FE1598C00705D13868029A011DD9
:10AB20003960006802604046F0E6000002FCFFFF6A
:10AB30000000F07F0000F03F2DE9FF4F92461D46D8
:10AB400085B04FF00041DDE9124BDDE914727F1E44
:10AB500001EA4B50414940F0FF4940EA0108002119
:10AB600022F020004928049102D04E2828D04CE041
:10AB70003BA0012607C88DE80700A9690698641C58
:10AB800088477F1E014606D41DF8060018B121F043
:10AB9000200181420BD0E96906988847032E34D002
:10ABA000082E32D06FF0010009B0BDE8F08F761C9E
:10ABB000032E01D0082EE0D1601CCAF80000DCE7AB
:10ABC000A9690698641C88477F1E2AD420F02000BB
:10ABD000412826D1A9690698641C88477F1E20D485
:10ABE00020F020004E281CD1A9690698641C8847D3
:10ABF0007F1E48F4002849F48009CAF8004001D4B7
:10AC0000282806D0E969069888475FEACB7012D0F9
:10AC100022E0A9690698641C88477F1E01D4002899
:10AC200003DAE96906988847BCE72928F1D1641C52
:10AC3000CAF80040E9E71BF0240F07D02868049900
:10AC4000031D2B600068C0E9001805E02868021D9C
:10AC50002A600068C0F800902046A5E70000F07F59
:10AC6000494E46494E49545900000000B2F12003B4
:10AC70000AD5C2F1200301FA02F120FA03F300FA27
:10AC800002F041EA0301704700FA03F14FF00000BF
:10AC900070475FEA400C08BF91F0000F4FEA8C2329
:10ACA0004FEAC12243EA51514FEA1C5018BF00F548
:10ACB000F0404FEA300018BF41F000415FEA6C5CA1
:10ACC00000F02980BCF1FF3F08BF40F08040704792
:10ACD000130C06BF12044FF0100C4FF0000C130EB3
:10ACE00004BF12020CF1080C130F04BF12010CF187
:10ACF000040C930F04BF92000CF1020CD30F04BF9D
:10AD000052000CF1010C11464FF00002A0F11F009F
:10AD1000A0EB0C00704711F0004F08BF704731F0F6
:10AD200000413FF4D5AF0B0C06BF09044FF0100CE7
:10AD30004FF0000C0B0E04BF09020CF1080C0B0FB6
:10AD400004BF09010CF1040C8B0F04BF89000CF146
:10AD5000020CCB0F04BF49000CF1010CCCF1200315
:10AD6000A0EB0C0022FA03F302FA0CF241EA030111
:10AD700000F10100704720F07F4C80EA030023F0CF
:10AD80007F47ACEB070303F57C5300F0004003F171
:10AD9000FF032DE980494FEA154B09B44FEA1443EC
:10ADA00025EA0B4E24EA03480FF2042606EB13278C
:10ADB00049083E785FEA320203FB0667C7F50007E1
:10ADC00007FB06F64FEA54374FEAD64606F102066D
:10ADD00007FB066CCCF1005C4FEA1C472CEA074CE1
:10ADE00007FB06F40CFB06F504EB15464FEA961636
:10ADF00034BF00204FF000404FEAD13706FB07FC7C
:10AE00004FEA1C4C0CFB0BF7D21B03FB0CF761EB5E
:10AE100007010CFB0EF7B0EB074072EB17420CFB7F
:10AE200008F734BFA2EB0742B2EB074261EB1741D0
:10AE30004FEA0C444FEA910706FB07FC4FEA1C4C13
:10AE40000CFB0BF7B0EBC74072EB573203FB0CF770
:10AE500034BFA2EBC742B2EBC74261EB57310CFBE8
:10AE60000EF7B0EBC70072EB57720CFB08F734BF5C
:10AE7000A2EBC702B2EBC70261EB5771039F4FEA27
:10AE8000816141EA921104EBCC044FEAD1374FEAD9
:10AE9000826206FB07FC42EA90124FEA80604FEAAA
:10AEA0001C4C0CFB0BF7D21B03FB0CF761EB0701EF
:10AEB0000CFB0EF7B0EB074072EB17420CFB08F7E8
:10AEC00034BFA2EB0742B2EB074261EB17414FEAF6
:10AED0008C554FEA910704EB9C2406FB07FC4FEAD4
:10AEE0001C4C0CFB0BF7B0EBC74072EB573203FB6B
:10AEF0000CF734BFA2EBC742B2EBC74261EB57314C
:10AF00000CFB0EF7B0EBC70072EB57720CFB08F7A7
:10AF100034BFA2EBC702B2EBC70261EB577115EB6E
:10AF20004C254FEA816141EA92114FEA82624FEA71
:10AF3000D13742EA901206FB07FC44F100044FEAC5
:10AF400080604FEA1C4C0CFB0BF7D21B03FB0CF789
:10AF500061EB07010CFB0EF7B0EB074072EB1742F9
:10AF60000CFB08F734BFA2EB0742B2EB074261EBE0
:10AF7000174115EB1C154FEA813141EA92414FEA26
:10AF8000823242EA90424FEA80304FEA0C7644F136
:10AF9000000448EA03434EEA0B484FF0000EB2EBC0
:10AFA000080C71EB030724BF624639464EEB0E0EC8
:10AFB0004FF0000B0018524149414BEB0B0BB2EB29
:10AFC000080C71EB03077BF1000B24BF6246394686
:10AFD0004EEB0E0E4FF0000B0018524149414BEB67
:10AFE0000B0BB2EB080C71EB03077BF1000B24BFDA
:10AFF000624639464EEB0E0E51EA020718BF46F084
:10B00000010616EB0E7655F1000254F1000103D54E
:10B01000BDE88901BDE80088BDE88901BDE80048B8
:10B02000B619524141EB0101A3F101037047808041
:10B030007F7E7D7C7B7A7978777676757473727192
:10B0400071706F6E6E6D6C6C6B6A6A69686867664A
:10B0500066656464636362616160605F5F5E5E5DDC
:10B060005D5C5C5B5B5A5A59595858575756565550
:10B0700055555454535352525251515050504F4FB2
:10B080004F4E4E4D4D4D4C4C4C4B4B4B4A4A4A4902
:10B090004949484848474747474646464545454445
:10B0A00044444443434343424242424141410000FD
:10B0B00046EA0646A3F570534FEA164646EA42565C
:10B0C0004FEAD22242EA415210B54FEAD121A3F110
:10B0D000010300F02FF820F0004000F1020C00F016
:10B0E000004701EB00501146BCF5006F40EA070035
:10B0F00000D210BDBAF1000F0AD01CB503B44FF056
:10B1000004004FF004014FF000000FBCBDE81040F8
:10B110004FF00001BBF1010FB9BF04484FF0FF3100
:10B120000348002140EA070010BD00BFFFFFEF7F8A
:10B130000000F07F002B9C4630D477002BD01CB54C
:10B140004FEA370703B44FF010004FF01001BAF187
:10B15000000F06D0BCF1000FDCBF40F0080040F04B
:10B1600008014FF000000FBCBDE810400BF1010BCF
:10B17000BBF1010F08BF5FEA170722BF12F10102FE
:10B1800011F101014FF0004143F1000300F00040D4
:10B1900043EA00007047F9D35708D0E746EA06466D
:10B1A00013F1400F4FEA16461FDD13F1200FDFBFEA
:10B1B00016430A46002120335B42BED0C3F120076C
:10B1C00046EA064602FA07F74FEA164646EA070637
:10B1D000C3F1200722FA03F201FA07F721FA03F17B
:10B1E0004FF0000342EA0702A7E746EA020646EAF2
:10B1F00006464FEA164646EA0106BCBF46EA064640
:10B20000360C4FF000034FF000024FF0000194E7BE
:10B210002DE9804C9A46934670B491E8380007C8EF
:10B2200031EA400C48BF34EA430C03D5FFF7A3FDD5
:10B23000FFF780FFF0BCBDE8008C2DE9804C9A46FA
:10B24000934670B491E8380007C831EA400C48BF13
:10B2500034EA430C03D5FFF78EFDFFF729FFF0BC5E
:10B26000BDE8008C2DE9804C9A46934670B491E875
:10B27000380007C810F0804F08BF13F0804F03D18B
:10B2800000F01AF8FFF756FFF0BCBDE8008C2DE97E
:10B29000804C9A46934670B491E8380007C810F085
:10B2A000804F08BF13F0804F03D100F005F8FFF77F
:10B2B000FFFEF0BCBDE8008C20F07F4780EA030071
:10B2C00023F07F4C07EB0C03A3F57C5300F0004008
:10B2D000A3F1FE0392F0000F00F0B38095F0000F91
:10B2E00000F077802DE901494FEA11404FEA1446FA
:10B2F00021EA004800FB06FC24EA064708FB06F6A4
:10B3000007FB08F800FB07F718EB06484CEB164C58
:10B310004FEA124B18EB07484FEA15464CEB174023
:10B3200022EA0B4E0BFB06FC25EA06470EFB06F64F
:10B3300007FB0EFE0BFB07F71EEB064E4CEB164C05
:10B340004FF000061EEB074E4CEB174B18EB0B08AB
:10B3500040F1000018EB0E0B58EB000840F1000024
:10B360008F1A4FF000013CBFC943661B14BFB5EBF9
:10B37000040C00213CBFC943F61B4FEA17444EEAB8
:10B380008E0E27EA04454FEA1C4704FB07622CEAAD
:10B39000074C05FB07F70CFB05F604FB0CFC16EB52
:10B3A000074642EB174216EB0C4642EB1C421BEBE6
:10B3B000060658EB0202414146EA9E0601D5BDE869
:10B3C0000189B619524141EB0101A3F10103BDE826
:10B3D00001894FEA14454FEA114724EA054621EA5C
:10B3E000074C05FB07F406FB07F70CFB06F105FB12
:10B3F0000CFC11EB074144EB17444FEA124711EBE9
:10B400000C4144EB1C4422EA074C05FB07F206FB07
:10B4100007F70CFB06F605FB0CFC16EB074642EBA8
:10B42000174216EB0C4642EB1C456A1854F100011A
:10B4300048BF7047B619524141EB0101A3F1010326
:10B44000704795F0000F37D04FEA11424FEA14478A
:10B4500021EA024624EA074C02FB07F106FB07F744
:10B460000CFB06F402FB0CFC14EB074441EB174108
:10B470004FEA154714EB0C4441EB1C4125EA074CFD
:10B4800002FB07F506FB07F70CFB06F602FB0CFCBC
:10B4900016EB074645EB174516EB0C4645EB1C42F1
:10B4A000121951F1000148BF7047B619524141EBE2
:10B4B0000101A3F1010370474FEA14454FEA114718
:10B4C00024EA054621EA074C05FB07F106FB07F7CE
:10B4D0000CFB06F24FF0000605FB0CFC12EB0742DA
:10B4E00041EB174112EB0C4251EB1C4148BF704736
:10B4F000921841EB0101A3F10103704700B585B03B
:10B5000000BF1D48806940F400401B49886108461F
:10B51000806900F40040009000BF00BF00BF0846F3
:10B52000806940F0100088610846806900F01000D2
:10B53000009000BF00BF012001900320029001A9EC
:10B540000E4802F063F80E480E49086000210D48CD
:10B550008160C16041614FF46021C16100200949EF
:10B56000486001210748016100F0DCFE054800F059
:10B5700071FD05B000BD0000001002400010014048
:10B58000003C0140F40400203EB504460094012034
:10B590000190072002906946074800F0DDFD06484B
:10B5A00001F03CF86421044800F080FF024800F0FC
:10B5B000B5FE80B23EBD0000F404002070B5044624
:10B5C00000252068806800F00100F0B120688068E4
:10B5D00020F001002168886002F0C6F905460EE0FF
:10B5E00002F0C2F9401B022809D9A06A40F01000FD
:10B5F000A062E06A40F00100E062012070BD2068B6
:10B60000806800F001000028EAD10020F6E7000081
:10B6100038B504460025002000902068806800F0BE
:10B62000010080BB2068806840F0010021688860CC
:10B63000164800681649B0FBF1F0009002E000984F
:10B64000401E009000980028F9D102F08DF90546BF
:10B6500013E002F089F9401B02280ED9A06A40F0DD
:10B660001000A062E06A40F00100E06200BF00202C
:10B6700084F8240000BF012038BD2068806800F0F5
:10B6800001000028E5D00020F6E70000A803002014
:10B6900040420F0010B53848007808B906F0C3FBE7
:10B6A00036480078012808D1002033490870344911
:10B6B00008703449087034490880002005F03AF8D1
:10B6C0000446324912F05AFE32D82D480078F0B1C3
:10B6D0002D480088401C2C4908802D4800782849B6
:10B6E0000978884202D00020274908802448007841
:10B6F0002749087024480088FF281CDD00202249C3
:10B7000008801F49087001201E49087013E01E4878
:10B710000088401C1C49088008460088FF280ADD74
:10B72000002008801649087001201649087002E0C0
:10B730000020144908701048007801281AD1002010
:10B7400004F0F8FF0446134912F018FE12D80D4811
:10B75000007801280ED106F059FB642000F096FA1B
:10B7600006F054FB642000F091FA012202210A48FD
:10B7700002F0F4F810BD0000240200202602002090
:10B7800025020020E9000020E60000200000204201
:10B79000E8000020000048420010014000B585B0DC
:10B7A00000BF0F48806940F010000D4988610846CD
:10B7B000806900F01000009000BF00BF02200190DF
:10B7C0000120029002200390049001A9054801F095
:10B7D0001DFF00220221034802F0C0F805B000BDA1
:10B7E000001002400010014000BFFEE710B502F05B
:10B7F000BBF806490860064806490968405C00B184
:10B8000010BD05A0FDF7B8FD00BFF9E78C010020D1
:10B8100065010020700100206F6B0A0070B59AA0CE
:10B82000FDF7AAFD9AA0FDF7A7FD97A0FDF7A4FDDF
:10B830009B49086812F0AAFB044622460B4699A0D1
:10B84000FDF79AFD9649486812F0A0FB044622468F
:10B850000B4697A0FDF790FD9149886812F096FB82
:10B86000044622460B4694A0FDF786FD8C49C86825
:10B8700012F08CFB044622460B4691A0FDF77CFD9E
:10B8800081A0FDF779FD90A0FDF776FD7EA0FDF784
:10B8900073FD9449086812F079FB044622460B4672
:10B8A00091A0FDF769FD8F49486812F06FFB0446CF
:10B8B00022460B467EA0FDF75FFD8A49886812F09C
:10B8C00065FB044622460B467BA0FDF755FD8549E6
:10B8D000C86812F05BFB044622460B4678A0FDF7D1
:10B8E0004BFD69A0FDF748FD82A0FDF745FD66A070
:10B8F000FDF742FD8748016887A0FDF73DFD8548BB
:10B90000416888A0FDF738FD8248816887A0FDF76F
:10B9100033FD8048C16887A0FDF72EFD5AA0FDF7D2
:10B920002BFD86A0FDF728FD57A0FDF725FD9148CA
:10B93000006812F02BFB044622460B468EA0FDF752
:10B940001BFD9048006812F021FB044622460B467E
:10B950008DA0FDF711FD4CA0FDF70EFD8C48FDF705
:10B960000BFD49A0FDF708FD8A48006812F00EFBA8
:10B97000044622460B4688A0FDF7FEFC8948006875
:10B9800012F004FB044622460B4687A0FDF7F4FCA8
:10B990008748016887A0FDF7EFFC8848006812F02F
:10B9A000F5FA044622460B4685A0FDF7E5FC8648DD
:10B9B000006812F0EBFA044622460B463EA0FDF763
:10B9C000DBFC8248006812F0E1FA044622460B468E
:10B9D0003BA0FDF7D1FC2CA0FDF7CEFC7CA0FDF731
:10B9E000CBFC29A0FDF7C8FC7E49086812F0CEFA0E
:10B9F000044622460B467CA0FDF7BEFC7949486808
:10BA000012F0C4FA044622460B4629A0FDF7B4FC06
:10BA10007449886812F0BAFA044622460B4626A0FA
:10BA2000FDF7AAFC18A0FDF7A7FC72A0FDF7A4FC87
:10BA300015A0FDF7A1FC7348006812F0A7FA0446B0
:10BA400022460B4670A0FDF797FC01227148016861
:10BA5000002009F031F9064612F098FA0446224611
:10BA60000B466DA0FDF788FC01226D480168104669
:10BA700009F022F9064612F089FA044622460B46DE
:10BA800068A0FDF779FC70BD6563686F3A0000003F
:10BA900053746570732070657220756E69743A0016
:10BAA000B001002020204D393220582566000000CA
:10BAB0002059256600000000205A2566000000007D
:10BAC000204525660D0A00004D6178696D756D2071
:10BAD00066656564726174657320286D6D2F7329C6
:10BAE0003A0D0A00A001002020204D3230332058AA
:10BAF000256600004D6178696D756D204163636551
:10BB00006C65726174696F6E20286D6D2F733229B8
:10BB10003A0D0A00C001002020204D32303120585B
:10BB2000256C64002059256C64000000205A256CA7
:10BB3000640000002045256C640D0A0041636365C4
:10BB40006C65726174696F6E3A20533D6163636521
:10BB50006C65726174696F6E2C20543D72657472ED
:10BB600061637420616363656C65726174696F6E93
:10BB70000D0A0000D801002020204D32303420531F
:10BB800025660000DC010020205425660D0A000017
:10BB900074000308D401002020204D32303520539A
:10BBA00025660000EC0100202054256600000000FE
:10BBB000D00100202042256C64000000E00100203C
:10BBC0002058256600000000E4010020E801002064
:10BBD000486F6D65206F666673657420286D6D29EA
:10BBE0003A0D0A006CB3002020204D323036205828
:10BBF000256600005049442073657474696E67734C
:10BC00003A0D0A007C0000202020204D33303120E6
:10BC100050256600800000202049256600000000B5
:10BC200084000020204425660D0A000010B5074856
:10BC30004068102804D10649C86D00F0B7FF03E042
:10BC40000349886D00F0B2FF10BD0000D00600204F
:10BC50001806002010B5046863604468102C04D1F5
:10BC60000468A2600468E16003E00468A1600468FD
:10BC7000E26010BD7047000010B50446042003F0D8
:10BC80009BFC0148046010BD0C00002030B5044648
:10BC9000002504E04FF47A7000F004F86D1CA54212
:10BCA000F8D330BD70B5034600224FF0E026756929
:10BCB0000D4E366803FB06F44FF0E026B16910E044
:10BCC0004FF0E026B06988420BD0884202D20E1AAB
:10BCD000324402E02E1A0E4432440146A24200D3FE
:10BCE00000E0EDE700BF70BD0C00002010B50E486D
:10BCF000006800F4805018B14FF4805001F078FCD7
:10BD00000948006800F4005018B14FF4005001F0E9
:10BD10006FFC0548006800F4804018B14FF4804083
:10BD200001F066FC10BD00001404014030B504466B
:10BD3000002504E04FF47A7000F004F86D1CA54271
:10BD4000F8D330BD00EB4002910000BF0A1EA1F104
:10BD50000101FBD17047000070B505460E4665B97C
:10BD60002EB92021164801F0F1FD044622E02021E1
:10BD7000134801F0EBFD04461CE0012D0CD12EB957
:10BD800040210F4801F0E2FD044613E040210C4839
:10BD900001F0DCFD04460DE0022D0BD12EB980210F
:10BDA000074801F0D3FD044604E08021044801F077
:10BDB000CDFD0446012C01D1012070BD0020FCE71F
:10BDC0000008014000200349087003490870034936
:10BDD00008707047DE000020DF000020E000002037
:10BDE00000B585B000BF0E48806940F004000C49E2
:10BDF00088610846806900F00400009000BF00BF21
:10BE0000E0200190002002900120039001A9054844
:10BE100001F0FCFB012000F007F805B000BD0000B8
:10BE200000100240000801400149087070470000FE
:10BE3000E10000202DE9F0412E48007830B92E486D
:10BE4000007818B92D480078002851D02CA0FDF7B3
:10BE500093FA2DA0FDF790FA2648007890B12E496C
:10BE6000086812F05FFA07462C480168384612F05D
:10BE700027F9044612F08AF805462A460B4628A000
:10BE8000FDF77AFA1C48007890B12349486812F00F
:10BE900049FA074621484168384612F011F904462C
:10BEA00012F074F805462A460B461FA0FDF764FA07
:10BEB0001248007890B11849886812F033FA0746A2
:10BEC00016488168384612F0FBF8044612F05EF816
:10BED00005462A460B4616A0FDF74EFA16A0FDF7BA
:10BEE0004BFA0020034908700349087003490870A1
:10BEF000BDE8F081DE000020DF000020E00000202F
:10BF00006563686F3A000000656E6473746F7073E8
:10BF1000206869743A20000034B30020B00100208A
:10BF200020583A256600000020593A256600000096
:10BF3000205A3A25660000000A00000010B54FF4B0
:10BF40000D71002005F07AF8044908600846006881
:10BF500008B1002010BD0220FCE700002C020020E8
:10BF60002DE9FC4105460027002405E0601CC4B211
:10BF7000287800B902E06D1CFA2CF7DB00BFFA2C20
:10BF800002D1FF20BDE8FC81002408E06D1E287866
:10BF90002E2802D16D1C2F4603E0601CC4B2062C73
:10BFA000F4DB00BF39466846FDF7B7FB002407E025
:10BFB0001DF804000AF0EAF80DF80400601CC4B291
:10BFC000052CF5DB002425E000261EE004EB8400B0
:10BFD00000EBC400114901EB800050F82600007806
:10BFE00000B914E004EB840101EBC4010B4A02EB3D
:10BFF000810151F826006946FDF77CFC18B946EA34
:10C000000410C0B2BEE7701CC6B20D2EDEDB00BF4E
:10C01000601CC4B2072CD7DBFF20B3E7300200203E
:10C0200010B509F079F806A0FDF7A6F907480168F0
:10C03000491C07A0FDF7A0F9FFF7D8FB10BD0000D1
:10C04000526573656E643A20000000005C010020B8
:10C0500025640A00F8B5044600260020009000BFC1
:10C0600094F82400012801D10220F8BD012084F8B1
:10C07000240000BF2046FFF7A1FA0646002E62D139
:10C08000A06A20F4885040F00200A062022001F073
:10C090000BFD30490968B1FBF0F04000009002E070
:10C0A0000098401E009000980028F9D12046FFF724
:10C0B000AFFA2068806840F008002168886001F0CD
:10C0C00053FC054611E001F04FFC401B0A280CD937
:10C0D000A06A20F0020040F01000A06200BF002023
:10C0E00084F8240000BF0120BFE72068806800F0CA
:10C0F00008000028E7D12068806840F0040021682B
:10C10000886001F031FC054611E001F02DFC401B78
:10C110000A280CD9A06A20F0020040F01000A062AA
:10C1200000BF002084F8240000BF01209DE72068A4
:10C13000806800F004000028E7D1A06A20F0020027
:10C1400040F00100A06200BF002084F8240000BF7E
:10C1500030468AE7A803002078B502460023002075
:10C16000009000BF92F82400012801D1022078BD80
:10C17000012082F8240000BF486807281DD21068FB
:10C18000446B0879401E4FF4787595FAA5F5B5FA19
:10C1900085F568431F25854024EA05000C79641E57
:10C1A0004FF4787696FAA6F6B6FA86F674430D68DA
:10C1B000A5402843146860633DE048680D281DD2FF
:10C1C0001068046B0879C01F4FF4787595FAA5F5CF
:10C1D000B5FA85F568431F25854024EA05000C79EA
:10C1E000E41F4FF4787696FAA6F6B6FA86F674430C
:10C1F0000D68A5402843146820631CE01068C46AD9
:10C2000008790D384FF4787595FAA5F5B5FA85F5E6
:10C2100068431F25854024EA05000C790D3C4FF446
:10C22000787696FAA6F6B6FA86F674430D68A540B7
:10C2300028431468E06208680A281BD31068C468A1
:10C2400008780A38382595FAA5F5B5FA85F56843D2
:10C250000725854024EA05000C780A3C382696FA22
:10C26000A6F6B6FA86F674438D68A540284314688E
:10C27000E06017E0106800690C78382595FAA5F59C
:10C28000B5FA85F56C430725A540A8430D783826F7
:10C2900096FAA6F6B6FA86F675438C68AC4020434B
:10C2A000146820610868102802D00868112827D176
:10C2B000174C1068A0421ED11068806800F400007E
:10C2C000F0B91068806840F400001468A060086845
:10C2D000102815D10F4800680F4CB0FBF4F000EBAC
:10C2E00080004000009002E00098401E00900098FE
:10C2F0000028F9D104E0906A40F020009062012308
:10C3000000BF002082F8240000BF18462FE700007D
:10C3100000240140A803002040420F0001460868A5
:10C32000C06C70472DE9F041044600270025002627
:10C33000A84614B90120BDE8F081A06810B1606979
:10C3400000B100BFA06A30B90020E06284F8240088
:10C35000204600F0A9F82046FFF730F90746A06A0A
:10C3600000F0100000287DD1002FFCD1A06A20F43D
:10C37000885040F00200A062484AD4E9000190428F
:10C3800008D1E069B0F5402F02D14FF4002002E05F
:10C39000E06900E0E0690843022292FAA2F2B2FAF0
:10C3A00082F2E168914008430643A068B0F5807FBF
:10C3B00002D0A068012802D14FF4807000E0002074
:10C3C00005436069012816D1E06860B9A069401E84
:10C3D0004FF4604191FAA1F1B1FA81F1884040F443
:10C3E0000060054307E0A06A40F02000A062E06A18
:10C3F00040F00100E0622068406820F46940284372
:10C4000021684860206880682549084030432168D9
:10C410008860A068B0F5807F02D0A068012802D1B2
:10C420004FF4807000E00020B0F5807F09D12069D2
:10C43000401E4FF4700191FAA1F1B1FA81F100FAB6
:10C4400001F82068C06A20F4700040EA0800216802
:10C45000C8622068806813490840B0420AD10020B1
:10C46000E06200E012E0A06A20F0020040F001006B
:10C47000A06210E0A06A20F0020040F01000A0626C
:10C48000E06A40F00100E062012704E0A06A40F0A9
:10C490001000A062012738464DE70000003C014033
:10C4A000FDF7E1FFFE0E1FFF70470000F8B50446E0
:10C4B0000D46002600200090002701F055FA0646A0
:10C4C0002068806800F4807050B1A06A40F02000BD
:10C4D000A06200BF002084F8240000BF0120F8BD46
:10C4E0002068406800F48070F8B92068C06A00F4E1
:10C4F0007000D0B912E0681C80B125B101F034FAA7
:10C50000801BA8420AD9A06A40F00400A06200BFC4
:10C51000002084F8240000BF0320E0E720680068C2
:10C5200000F002000028E6D050E0022001F0BCFA42
:10C5300036490968B1FBF0F021680969344A1140B5
:10C5400091B92168C9689211114069B921680969D6
:10C55000304A114031B92168C9689211114009B9B6
:10C56000142117E0292115E021680969294A1140A1
:10C5700021B92168C9689211114041B12168096946
:10C58000254A114029B92168C968114009B95421C7
:10C5900000E0FC2100FB01F715E0681C80B125B12B
:10C5A00001F0E2F9801BA8420AD9A06A40F0040019
:10C5B000A06200BF002084F8240000BF03208EE7A3
:10C5C0000098401C00900098B842E6D36FF012002B
:10C5D00021680860A06A40F40070A062206880684A
:10C5E00000F46020B0F5602F0DD1E06858B9A06A62
:10C5F00020F48070A062A06A00F4805018B9A06A8C
:10C6000040F00100A062002069E70000A8030020BC
:10C6100024499224922449124992240070B5044678
:10C62000002500BF94F82400012801D1022070BD2C
:10C63000012084F8240000BF2046FEF7E9FF0546EC
:10C64000002D77D1A06A40F20121884340F4807028
:10C65000A0623C492068884208D13B48006800F449
:10C66000702008B9012002E0002000E0012078B12C
:10C67000A06A20F48010A0622068406800F4806006
:10C6800000B3A06A20F4005040F48050A06219E08A
:10C69000A06A40F48010A0622B49091F20688842DC
:10C6A00003D028492068884204D12748006800F454
:10C6B000806000E0002028B1A06A20F4005040F41F
:10C6C0008050A062A06A00F4805020B1E06A20F09F
:10C6D0000600E06201E00020E06200BF002084F874
:10C6E000240000BFC01E216808602068806800F434
:10C6F0006020B0F5602F16D112492068884208D119
:10C700001148006800F4702008B9012002E0002000
:10C7100000E0012038B12068806840F4A000216862
:10C7200088600CE006E02068806840F48010216892
:10C73000886004E000BF002084F8240000BF284681
:10C7400075E700000028014004240140014609B9B2
:10C750000120704791F82100022801D10120F8E75B
:10C760000868006820F001000A68106000200A686C
:10C7700010600A6850600A6890600A68D060F94AE0
:10C780000868904254D9F74A783A0868904201D133
:10C79000022049E0F34A643A0868904201D120201F
:10C7A00042E0F04A503A0868904201D140153BE01F
:10C7B000EC4A3C3A0868904202D14FF4005033E012
:10C7C000E84A283A0868904202D14FF400302BE042
:10C7D000E44A143A0868904202D14FF4001023E072
:10C7E000E04A0868904201D180041DE0DE4A0868F2
:10C7F000904201D1022017E0DB4A143208689042CF
:10C8000001D1202010E0D84A28320868904201D196
:10C81000401509E0D44A3C320868904202D14FF4F6
:10C82000005001E04FF40030CF4A121F106053E077
:10C83000CC4A783A0868904201D1022049E0C94ABE
:10C84000643A0868904201D1202042E0C54A503A3B
:10C850000868904201D140153BE0C24A3C3A086862
:10C86000904202D14FF4005033E0BE4A283A0868A3
:10C87000904202D14FF400302BE0BA4A143A0868D3
:10C88000904202D14FF4001023E0B64A086890426B
:10C8900001D180041DE0B44A0868904201D1022011
:10C8A00017E0B14A14320868904201D1202010E00C
:10C8B000AD4A28320868904201D1401509E0AA4AE1
:10C8C0003C320868904202D14FF4005001E04FF42E
:10C8D0000030A44A803A5060A24A0868904254D975
:10C8E000A04A783A0868904201D1082049E09D4A60
:10C8F000643A0868904201D1802042E0994A503A57
:10C900000868904201D1C0143BE0964A3C3A08685E
:10C91000904202D14FF4004033E0924A283A08682E
:10C92000904202D14FF400202BE08E4A143A08685E
:10C93000904202D14FF4000023E08A4A08689042F6
:10C9400001D100051DE0884A0868904201D1082005
:10C9500017E0854A14320868904201D1802010E027
:10C96000814A28320868904201D1C01409E07E4A09
:10C970003C320868904202D14FF4004001E04FF48D
:10C980000020794A121F106053E0764A783A08680E
:10C99000904201D1082049E0724A643A0868904206
:10C9A00001D1802042E06F4A503A0868904201D19C
:10C9B000C0143BE06B4A3C3A0868904202D14FF405
:10C9C000004033E0674A283A0868904202D14FF4A9
:10C9D00000202BE0634A143A0868904202D14FF4D9
:10C9E000000023E05F4A0868904201D100051DE085
:10C9F0005D4A0868904201D1082017E05A4A143273
:10CA00000868904201D1802010E0574A2832086817
:10CA1000904201D1C01409E0534A3C320868904268
:10CA200002D14FF4004001E04FF400204D4A803A1B
:10CA300050604C4A0868904254D94A4A783A08688B
:10CA4000904201D1042049E0464A643A0868904285
:10CA500001D1402042E0434A503A0868904201D157
:10CA600000153BE03F4A3C3A0868904202D14FF43F
:10CA7000804033E03B4A283A0868904202D14FF4A4
:10CA800080202BE0374A143A0868904202D14FF4D4
:10CA9000800023E0334A0868904201D1C0041DE0C1
:10CAA000314A0868904201D1042017E02E4A14321E
:10CAB0000868904201D1402010E02B4A28320868D3
:10CAC000904201D1001509E0274A3C3208689042A3
:10CAD00002D14FF4804001E04FF48020224A121F1F
:10CAE000106055E01F4A783A0868904201D104204E
:10CAF0004CE01C4A643A0868904201D1402045E06D
:10CB0000184A503A0868904201D100153EE0154A93
:10CB10003C3A0868904202D14FF4804036E0114A16
:10CB2000283A0868904202D14FF480202EE00D4A46
:10CB3000143A0868904202D14FF4800026E0094A76
:10CB40000868904201D1C00420E0074A086890427A
:10CB500001D104201AE0044A14320868904205D139
:10CB6000402013E080000240080402400D4A08689B
:10CB7000904201D1001509E00A4A14320868904237
:10CB800002D14FF4804001E04FF48020064A50600B
:10CB90000020486381F8210000BF81F8200000BF19
:10CBA00000BFD6E5300402400000024010B5044644
:10CBB000F8492068884255D9F7480068F54A783A1C
:10CBC0002168914201D108214AE0F24A643A216881
:10CBD000914201D1802143E0EE4A503A21689142CE
:10CBE00001D1C9143CE0EB4A3C3A2168914202D1A0
:10CBF0004FF4004134E0E74A283A2168914202D1DB
:10CC00004FF400212CE0E34A143A2168914202D10A
:10CC10004FF4000124E0DF4A2168914201D1090567
:10CC20001EE0DD4A08322168914201D1082117E057
:10CC3000D94A1C322168914201D1802110E0D64AA4
:10CC400030322168914201D1C91409E0D24A4432FC
:10CC50002168914202D14FF4004101E04FF40021DC
:10CC6000084055E0CB4880380068CA4A783A2168C5
:10CC7000914201D108214AE0C64A643A21689142B2
:10CC800001D1802143E0C34A503A2168914201D149
:10CC9000C9143CE0BF4A3C3A2168914202D14FF4AA
:10CCA000004134E0BB4A283A2168914202D14FF456
:10CCB00000212CE0B74A143A2168914202D14FF486
:10CCC000000124E0B34A2168914201D109051EE028
:10CCD000B14A08322168914201D1082117E0AE4AD9
:10CCE0001C322168914201D1802110E0AA4A3032E1
:10CCF0002168914201D1C91409E0A74A4432216850
:10CD0000914202D14FF4004101E04FF4002108406C
:10CD1000002873D020680068C0F3C0000028F8D055
:10CD20002068006820F008002168086099492068A0
:10CD3000884255D9974978392068884201D108201E
:10CD40004AE0944964392068884201D1802043E058
:10CD5000904950392068884201D1C0143CE08D4987
:10CD60003C392068884202D14FF4004034E08949C0
:10CD700028392068884202D14FF400202CE08549F0
:10CD800014392068884202D14FF4000024E0814920
:10CD90002068884201D100051EE07F4908312068E3
:10CDA000884201D1082017E07B491C312068884265
:10CDB00001D1802010E0784930312068884201D1CB
:10CDC000C01409E0744944312068884202D14FF40C
:10CDD000004001E04FF400206F49091D086055E054
:10CDE0006C4978392068884201D108204BE06949B4
:10CDF00064392068884202D1802044E057E06549C8
:10CE000050392068884201D1C0143CE061493C3966
:10CE10002068884202D14FF4004034E05D4928394F
:10CE20002068884202D14FF400202CE0594914397F
:10CE30002068884202D14FF4000024E05549206860
:10CE4000884201D100051EE053490831206888421C
:10CE500001D1082017E050491C312068884201D1D7
:10CE6000802010E04C4930312068884201D1C01444
:10CE700009E0494944312068884202D14FF400401A
:10CE800001E04FF40020434980394860606B40F076
:10CE900001006063042084F8210000BF002084F8B2
:10CEA000200000BF206B10B12046216B8847394914
:10CEB0002068884255D938480068364A783A21684F
:10CEC000914201D104214AE0324A643A21689142F8
:10CED00001D1402143E02F4A503A2168914201D1CB
:10CEE00009153CE02B4A3C3A2168914202D14FF4AB
:10CEF000804134E0274A283A2168914202D14FF418
:10CF000080212CE0234A143A2168914202D14FF447
:10CF1000800124E01F4A2168914201D1C9041EE02A
:10CF20001D4A08322168914201D1042117E01A4AB2
:10CF30001C322168914201D1402110E0164A303262
:10CF40002168914201D1091509E0134A4432216850
:10CF5000914202D14FF4804101E04FF4802108401A
:10CF600059E00C48803800680A4A783A21689142B2
:10CF700001D104214EE0074A643A2168914201D16F
:10CF8000402147E0034A503A2168914206D10915F1
:10CF900040E000008000024000040240F74A21689F
:10CFA000914202D14FF4804134E0F44A14322168B6
:10CFB000914202D14FF480212CE0F04A28322168BE
:10CFC000914202D14FF4800124E0EC4A3C322168C6
:10CFD000914201D1C9041DE0E94A2168914201D181
:10CFE000042117E0E64A14322168914201D1402120
:10CFF00010E0E34A28322168914201D1091509E085
:10D00000DF4A3C322168914202D14FF4804101E075
:10D010004FF48021084080B320680068C0F380008E
:10D0200058B32068006800F0200028B92068006824
:10D0300020F0040021680860D0493C312068884213
:10D0400055D9CE493C392068884201D104204AE0B4
:10D05000CA4928392068884201D1402043E0C749A5
:10D0600014392068884201D100153CE0C34920688A
:10D07000884203D14FF4804035E094E0BF49143139
:10D080002068884202D14FF480202CE0BB4928312F
:10D090002068884202D14FF4800024E0B7493C3137
:10D0A0002068884201D1C0041DE0B549206888424B
:10D0B00001D1042017E0B24914312068884201D11F
:10D0C000402010E0AE4928312068884201D1001587
:10D0D00009E0AB493C312068884202D14FF48040DE
:10D0E00001E04FF48020A649091F086053E0A349DE
:10D0F0003C392068884201D1042049E09F49283901
:10D100002068884201D1402042E09C4914392068BF
:10D11000884201D100153BE098492068884202D13D
:10D120004FF4804034E0954914312068884202D1A0
:10D130004FF480202CE0914928312068884202D1A8
:10D140004FF4800024E08D493C312068884201D1B1
:10D15000C0041DE08A492068884201D1042017E0FC
:10D16000874914312068884201D1402010E0844969
:10D1700028312068884201D1001509E080493C31FE
:10D180002068884202D14FF4804001E04FF48020B3
:10D190007A4944394860112084F82100E06A10B1CE
:10D1A0002046E16A884775493C312068884255D954
:10D1B000734808380068714A3C3A2168914201D1AD
:10D1C000022149E06D4A283A2168914201D120218B
:10D1D00042E06A4A143A2168914201D149153BE084
:10D1E000664A2168914202D14FF4005134E0634A0B
:10D1F00014322168914202D14FF400312CE05F4A91
:10D2000028322168914202D14FF4001124E05B4A98
:10D210003C322168914201D189041DE0584A2168BD
:10D22000914201D1022117E0554A143221689142FE
:10D2300001D1202110E0524A28322168914201D1C7
:10D24000491509E04E4A3C322168914202D14FF41F
:10D25000005101E04FF40031084054E047484438A1
:10D260000068464A3C3A2168914201D1022149E0D6
:10D27000424A283A2168914201D1202142E03F4AA6
:10D28000143A2168914201D149153BE03B4A21689B
:10D29000914202D14FF4005134E0384A14322168EF
:10D2A000914202D14FF400312CE0344A28322168F7
:10D2B000914202D14FF4001124E0304A3C322168FF
:10D2C000914201D189041DE02D4A2168914201D18A
:10D2D000022117E02A4A14322168914201D120210B
:10D2E00010E0274A28322168914201D1491509E00E
:10D2F000234A3C322168914202D14FF4005101E0AF
:10D300004FF40031084080B320680068C0F340004B
:10D3100058B32068006800F0200028B92068006831
:10D3200020F002002168086014493C3120688842DE
:10D3300058D912493C392068884201D102204DE079
:10D340000E4928392068884201D1202046E00B4947
:10D3500014392068884201D140153FE00749206810
:10D36000884203D14FF4005038E09EE00349143165
:10D370002068884206D14FF400302FE0440002407C
:10D380000804024049492068884202D14FF4001045
:10D3900024E0464914312068884201D180041DE010
:10D3A00043492068884201D1022017E040491431E6
:10D3B0002068884201D1202010E03D4928312068B2
:10D3C000884201D1401509E039493C312068884242
:10D3D00002D14FF4005001E04FF400303449091FEE
:10D3E000086053E0314964392068884201D1022045
:10D3F00049E02E4950392068884201D1202042E07E
:10D400002A493C392068884201D140153BE0274930
:10D4100028392068884202D14FF4005033E0234974
:10D4200014392068884202D14FF400302BE01F49A4
:10D430002068884202D14FF4001024E01B491431C7
:10D440002068884201D180041DE019492068884283
:10D4500001D1022017E0164914312068884201D119
:10D46000202010E0124928312068884201D140155F
:10D4700009E00F493C312068884202D14FF4005046
:10D4800001E04FF4003009496C394860606B60631B
:10D49000012084F8210000BF002084F8200000BF94
:10D4A000A06A10B12046A16A884710BD6C000240F6
:10D4B000080402400146002209B90120704791F892
:10D4C000210010B9002081F82000022081F82100FD
:10D4D0000868026843F6F0708243D1E901031843FB
:10D4E000CB6818430B6918434B6918438B69184381
:10D4F000CB6918430243086802600020486301209A
:10D5000081F821000020D9E72DE9F04104460D46BD
:10D5100016461F4600BF94F82000012802D10220C1
:10D52000BDE8F081012084F8200000BF022084F8CB
:10D5300021002068006820F00100216808603B4657
:10D54000324629462046FEF785FB2068006840F0F9
:10D550000200216808602068006840F0040021682B
:10D5600008602068006840F00800216808602068B2
:10D57000006840F00100216808600020D0E731B564
:10D58000002400F0F1F9044600BF00F0EDF9001BA3
:10D5900000998842F9D338BD10B504461148007887
:10D5A000F0B10A20FEF7C2FB21460F4800F0CEF989
:10D5B000B0B9B4F5805F06D0B4F5005F07D0B4F51C
:10D5C000804F0CD107E001200849887007E0012056
:10D5D0000649487003E001200449087000BF00BFFD
:10D5E00010BD0000EA000020000C0140EB0000200C
:10D5F00010B5044604480068204020B10248046089
:10D600002046FFF7C9FF10BD140401402DE9F8477B
:10D6100002460024002000258446002700237BE1E9
:10D620004FF0010808FA03F4D1F8008008EA04007A
:10D63000A0427DD1DFF8ECA2D1F80480A8EB0A0962
:10D64000D0453AD014DCB8F1030F50D009DCB8F162
:10D65000000F31D0B8F1010F1CD0B8F1020F49D141
:10D6600020E0B8F1110F18D0B8F1120F42D11EE02E
:10D67000B9F5881F25D006DCB9F5803F20D0B9F573
:10D68000801F37D11AE0B9F5001F18D0B9F5041F73
:10D6900030D117E0D1F80CC02DE0D1F80C8008F1A2
:10D6A000040C28E0D1F80C8008F1080C23E0D1F834
:10D6B0000C8008F10C0C1EE000BF00BF00BF00BFD3
:10D6C00000BF00BFD1F80880B8F1000F02D14FF0C1
:10D6D000040C0BE0D1F80880B8F1010F03D14FF032
:10D6E000080C146102E04FF0080C546103E04FF0A5
:10D6F000000C00E000BF00BFFF2801D8904601E009
:10D7000002F104084646FF2802D84FEA830803E0E6
:10D71000A3F108084FEA88084746D6F800804FF082
:10D720000F0909FA07F928EA09080CFA07F900E0D5
:10D730007AE048EA0908C6F80080D1F8048008F0C9
:10D740008058B8F1805F6FD100BFDFF8DC81D8F876
:10D75000188048F00108DFF8D091C9F81880C84651
:10D76000D8F8188008F00108CDF8008000BF00BF8D
:10D770004FEAB9384FEA930958F829504FEA8378AD
:10D780004FEA18794FF00F0808FA09F825EA08055A
:10D79000DFF89881424502D14FF0000824E0DFF81D
:10D7A0009081424502D14FF001081DE0DFF88481ED
:10D7B000424502D14FF0020816E0DFF87C81424575
:10D7C00002D14FF003080FE0DFF87081424502D12B
:10D7D0004FF0040808E0DFF86881424502D14FF0BD
:10D7E000050801E04FF006084FEA83794FEA1979FE
:10D7F00008FA09F848EA0505DFF848814FEA930975
:10D8000048F82950D1F8048008F48038B8F5803FF2
:10D810000BD1DFF83481D8F8008048EA0008DFF83F
:10D820002891C9F800800AE075E0DFF81C81D8F87B
:10D83000008028EA0008DFF81091C9F80080D1F8CC
:10D84000048008F40038B8F5003F0ED1DFF8F88006
:10D8500008F10408D8F8008048EA0008DFF8E890EA
:10D8600009F10409C9F800800DE0DFF8DC8008F157
:10D870000408D8F8008028EA0008DFF8CC9009F105
:10D880000409C9F80080D1F8048008F48018B8F5BC
:10D89000801F0ED1DFF8B08008F10808D8F80080AA
:10D8A00048EA0008DFF8A09009F10809C9F80080EB
:10D8B0000DE0DFF8948008F10808D8F8008028EA25
:10D8C0000008DFF8849009F10809C9F80080D1F850
:10D8D000048008F40018B8F5001F0ED1DFF8688046
:10D8E00008F10C08D8F8008048EA0008DFF85890E2
:10D8F00009F10C09C9F800800DE0DFF84C8008F14F
:10D900000C08D8F8008028EA0008DFF83C9009F1FC
:10D910000C09C9F800805B1C102BFFF481AEBDE838
:10D92000F8870000000011100010024000080140BC
:10D93000000C01400010014000140140001801409B
:10D94000001C0140080001400004014002469368A9
:10D950000B400BB1012000E0002070470AB10161CB
:10D9600001E00B0403617047014800687047000044
:10D97000A403002002480068401C01490860704769
:10D98000A403002010B50848006840F010000649C4
:10D990000860042000F068F8002000F007F800F0AC
:10D9A00017F8002010BD00000020024070B50446AA
:10D9B00000F036FB4FF47A71B0FBF1F5284601F028
:10D9C0000FFE00222146501E00F010F8002070BD0E
:10D9D000704700BF00F01F020121914042099200F0
:10D9E00002F1E022C2F8001100BF70472DE9F05F9C
:10D9F00080460D461646002703F094FB074639463D
:10DA00002A46334601F00700C0F1070ABAF1040FB5
:10DA100002D94FF0040A01E0C0F1070AD14600F133
:10DA2000040ABAF1070F02D24FF0000A01E0A0F198
:10DA3000030AD4464FF0010A0AFA09FAAAF1010AC8
:10DA40000AEA020A0AFA0CFA4FF0010B0BFA0CFB75
:10DA5000ABF1010B0BEA030B4AEA0B0421464046EB
:10DA600003F068FBBDE8F09F00BF00F00702064B23
:10DA700019684FF6FF031940044B0B4343EA022198
:10DA8000014B196000BF70470CED00E00000FA0583
:10DA90000120010291FAA1F1B1FA81F1014A42F8A3
:10DAA0002100704700000E422DE9F04385B0064684
:10DAB0004EA30FCB01AC0FC450A00068009000240F
:10DAC000A046A14600250027042E43D004DC012EE9
:10DAD00048D0022E70D170E0082E3FD0102E7FD19A
:10DAE00047484468006800F0807068B304F4701020
:10DAF0004FF4701191FAA1F1B1FA81F1C84001A976
:10DB00000F5C04F48030A0B13D48406800F4003060
:10DB1000710391FAA1F1B1FA81F1C8401DF80090AA
:10DB200004F4803040B13748B0FBF9F000FB07F552
:10DB300002E0354807FB00F53148406800F48000FA
:10DB4000B0F5800F01D1A84603E068000321B0FBC7
:10DB5000F1F846E000F096FA804642E000F092FAD2
:10DB600080463EE02648046A04F44070B0F5807FA9
:10DB700005D104F0020010B14FF400481BE004F49A
:10DB80004070B0F5007F07D11D48406A00F00200E8
:10DB900010B149F640480EE004F44070B0F5407F03
:10DBA00007D11748006800F4003010B14FF2244844
:10DBB00001E04FF0000814E012E000F04DFA0146D9
:10DBC0000F48406800F440404FF4804292FAA2F2BD
:10DBD000B2FA82F2D040401C4000B1FBF0F800E005
:10DBE00000BF00BF404605B0BDE8F0830203040556
:10DBF000060708090A0B0C0D0E0F10100102000099
:10DC00000010024000127A0000093D00F8B50446F9
:10DC100000260025207800F00100002877D000BF02
:10DC20005648C06940F080505449C8610846C069F0
:10DC300000F08050009000BF00BF5148006840F4E1
:10DC400080704F490860FFF78FFE064606E0FFF739
:10DC50008BFE801B642801D90320F8BD484800686A
:10DC600000F480700028F2D04448006A00F4407547
:10DC7000002D5ED0A08800F44070A84259D03F48E3
:10DC8000006A20F440750120010491FAA1F1B1FA73
:10DC900081F13C4A02EB8101C1F8000400204FF4FD
:10DCA000803191FAA1F1B1FA81F102EB8101C1F861
:10DCB00000043248056205F0010048B3FFF754FE46
:10DCC000064608E0FFF750FE801B41F2883188428B
:10DCD00001D90320C1E74020022191FAA1F1B1FA54
:10DCE00081F108430121B1EB601F02D12348006894
:10DCF00011E04020022191FAA1F1B1FA81F108432B
:10DD00000221B1EB601F04D11C48006A03E018E057
:10DD10000FE01A48406A4021022292FAA2F2B2FAB7
:10DD200082F2114301F01F020121914008400028B6
:10DD3000C8D01248006A20F44070616808430F4957
:10DD40000862207800F00200022807D10B484068E2
:10DD500020F44040A168084308494860207800F05A
:10DD60001000102807D10548406820F48000616940
:10DD700008430249486000206FE70000001002409D
:10DD8000007000400000424270B504460D46002677
:10DD90009F48006800F00700A8420ED29C48006827
:10DDA00020F0070028439A4908600846006800F000
:10DDB0000700A84201D0012070BD207800F00200C9
:10DDC000022807D19348406820F0F000A16808437A
:10DDD00090494860207800F0010000287CD06068FD
:10DDE00001282DD12020010391FAA1F1B1FA81F18E
:10DDF00008430121B1EB601F02D1864800680FE0A3
:10DE00002020010391FAA1F1B1FA81F10843022126
:10DE1000B1EB601F02D17F48006A01E07D48406A93
:10DE200020210A0392FAA2F2B2FA82F2114301F01F
:10DE30001F02012191400840002860D10120BBE76A
:10DE4000606802282CD12020010591FAA1F1B1FAD5
:10DE500081F108430121B1EB601F02D16D480068D8
:10DE60000FE02020010591FAA1F1B1FA81F10843F8
:10DE70000221B1EB601F02D16648006A01E06548EB
:10DE8000406A20210A0592FAA2F2B2FA82F2114304
:10DE900001F01F0201219140084078BB01208BE76F
:10DEA0002020022191FAA1F1B1FA81F10843012168
:10DEB000B1EB601F02D15748006810E0202002211A
:10DEC00091FAA1F1B1FA81F108430221B1EB601F8F
:10DED00003D15048006A02E054E04E48406A2021D5
:10DEE000022292FAA2F2B2FA82F2114301F01F0268
:10DEF00001219140084008B901205DE7FFE745484E
:10DF0000406820F003006168084342494860FFF719
:10DF10002BFD06466068012810D108E0FFF724FDBC
:10DF2000801B41F28831884201D9032044E73948F7
:10DF3000406800F00C000428F0D123E0606802285B
:10DF400010D108E0FFF710FD801B41F288318842B4
:10DF500001D9032030E72F48406800F00C00082862
:10DF6000F0D10FE008E0FFF7FFFC801B41F28831A1
:10DF7000884201D903201FE72648406800F00C00C2
:10DF80000028F0D12248006800F00700A8420ED90E
:10DF90001F48006820F0070028431D490860084614
:10DFA000006800F00700A84201D0012004E72078B3
:10DFB00000F00400042807D11648406820F4E0600F
:10DFC000E168084313494860207800F008000828F9
:10DFD00008D11048406820F46050216940EAC1002F
:10DFE0000C49486000F04EF80A49496801F0F00118
:10DFF000F02292FAA2F2B2FA82F2D140064A515CC1
:10E00000C840064908600020FFF7D0FC0020D3E696
:10E01000002002400010024018FD0208A803002062
:10E020000148006870470000A803002000B5FFF712
:10E03000F7FF0749496801F4E0614FF4E06292FAA2
:10E04000A2F2B2FA82F2D140024A515CC84000BD4D
:10E050000010024028FD020800B5FFF7E1FF074964
:10E06000496801F460514FF4605292FAA2F2B2FA98
:10E0700082F2D140024A515CC84000BD001002400B
:10E0800028FD0208F0B585B00FF28C0C9CE8E0107A
:10E0900001A8A0E8E01024A52D6800950021002427
:10E0A000002200230020214D696801F00C056DB3AA
:10E0B000042D02D0082D28D101E01D4828E001F4EC
:10E0C00070154FF4701696FAA6F6B6FA86F6F54075
:10E0D00001AE735D01F4803595B1144D6D6805F4A2
:10E0E00000354FF4003696FAA6F6B6FA86F6F540F5
:10E0F0001DF805400E4DB5FBF4F505FB03F202E0FB
:10E100000C4D03FB05F2104602E000BF084800BFBB
:10E1100000BF05B0F0BD00000203040506070809B2
:10E120000A0B0C0D0E0F101001020000001002402F
:10E1300000127A0000093D0038B504460025207819
:10E1400000F0010000287CD0F848406800F00C0086
:10E1500004280CD0F548406800F00C00082837D19E
:10E16000F248406800F48030B0F5803F30D1202084
:10E17000010391FAA1F1B1FA81F108430121B1EB58
:10E18000601F02D1E94800680FE02020010391FAE6
:10E19000A1F1B1FA81F108430221B1EB601F02D174
:10E1A000E248006A01E0E148406A20210A0392FA4D
:10E1B000A2F2B2FA82F2114301F01F020121914052
:10E1C00008400028BFD0606800283AD1012038BD3F
:10E1D00000BF6068B0F5803F06D1D448006840F4C5
:10E1E0008030D249086028E0606858B9CF4800689C
:10E1F00020F48030CD4908600846006820F4802073
:10E2000008601AE06068B0F5A02F0BD1C74800681D
:10E2100040F48020C54908600846006840F480301A
:10E2200008600AE0C148006820F48030BF490860F7
:10E230000846006820F48020086000BF6068C8B30A
:10E2400000E06FE0FFF790FB054606E0FFF78CFB70
:10E25000401B642801D90320B9E72020010391FA6B
:10E26000A1F1B1FA81F108430121B1EB601F02D1A4
:10E27000AE4800680FE02020010391FAA1F1B1FA45
:10E2800081F108430221B1EB601F02D1A748006A67
:10E2900001E0A648406A20210A0392FAA2F2B2FAEB
:10E2A00082F2114301F01F02012191400840002831
:10E2B000CCD037E0FFE7FFF757FB054606E0FFF756
:10E2C00053FB401B642801D9032080E72020010371
:10E2D00091FAA1F1B1FA81F108430121B1EB601F7C
:10E2E00002D1924800680FE02020010391FAA1F1C9
:10E2F000B1FA81F108430221B1EB601F02D18B48D2
:10E30000006A01E08948406A20210A0392FAA2F2D9
:10E31000B2FA82F2114301F01F020121914008403C
:10E320000028CCD1207800F0020002284ED17F488E
:10E33000406800F00C0050B17C48406800F00C00D0
:10E34000082844D17948406800F4803078BB202008
:10E35000022191FAA1F1B1FA81F108430121B1EB57
:10E36000601F02D1714800680FE02020022191FA5D
:10E37000A1F1B1FA81F108430221B1EB601F02D192
:10E380006A48006A01E06948406A2021022292FA44
:10E39000A2F2B2FA82F2114301F01F020121914070
:10E3A000084028B12069012802D001200FE70EE0C3
:10E3B0005E48006820F0F800F82292FAA2F2B2FA61
:10E3C00082F26169914008435849086091E02069F0
:10E3D000F0B3012090FAA0F1B1FA81F1544A42F869
:10E3E0002100FFF7C1FA054606E0FFF7BDFA401B22
:10E3F000022801D90320EAE62020022191FAA1F1A6
:10E40000B1FA81F108430121B1EB601F02D1474805
:10E4100000680FE02020022191FAA1F1B1FA81F108
:10E4200008430221B1EB601F02D14048006A01E0BD
:10E430003E48406A2021022292FAA2F2B2FA82F207
:10E44000114301F01F02012191400840002800E023
:10E450000FE0CAD03548006820F0F800F82292FAA0
:10E46000A2F2B2FA82F26169914008432F49086032
:10E470003FE00020012191FAA1F1B1FA81F12C4A8B
:10E4800042F82100FFF770FA054606E0FFF76CFA44
:10E49000401B022801D9032099E62020022191FA8D
:10E4A000A1F1B1FA81F108430121B1EB601F02D162
:10E4B0001E4800680FE02020022191FAA1F1B1FA74
:10E4C00081F108430221B1EB601F02D11748006AB5
:10E4D00001E01648406A2021022292FAA2F2B2FA22
:10E4E00082F2114301F01F020121914008400028EF
:10E4F000CCD1207800F0080008284BD1A069A8B33F
:10E50000012191FAA1F0B0FA80F0094A02EB8000F3
:10E51000C0F88014FFF728FA05460BE0FFF724FA4D
:10E52000401B022806D9032051E6000000100240DB
:10E53000000042426020022191FAA1F1B1FA81F17A
:10E5400008430121B1EB601F02D1F948006810E0D7
:10E550006020022191FAA1F1B1FA81F10843022170
:10E56000B1EB601F03D1F248006A02E013E0F0480B
:10E57000406A6021022292FAA2F2B2FA82F21143B8
:10E5800001F01F020121914008400028C6D001205F
:10E59000FEF7F5FF41E00020012191FAA1F1B1FA67
:10E5A00081F1E44A02EB8101C1F88004FFF7DCF954
:10E5B000054606E0FFF7D8F9401B022801D90320E1
:10E5C00005E66020022191FAA1F1B1FA81F1084338
:10E5D0000121B1EB601F02D1D54800680FE0602037
:10E5E000022191FAA1F1B1FA81F108430221B1EBC4
:10E5F000601F02D1CE48006A01E0CD48406A602128
:10E60000022292FAA2F2B2FA82F2114301F01F0240
:10E610000121914008400028CCD1207800F004006E
:10E62000042875D100BFC248C06940F08050C0497D
:10E63000C8610846C06900F08050009000BF00BF6C
:10E64000BD48006840F48070BB490860FFF78CF952
:10E65000054606E0FFF788F9401B642801D903202E
:10E66000B5E5B548006800F480700028F2D000BF1E
:10E67000E068012806D1AE48006A40F00100AC49CC
:10E68000086227E0E06858B9A948006A20F0010054
:10E69000A74908620846006A20F00400086219E0F1
:10E6A000E06805280BD1A248006A40F00400A049A8
:10E6B00008620846006A40F0010008620AE09C48CF
:10E6C000006A20F001009A4908620846006A20F0BA
:10E6D0000400086200BFE068D0B3FFF745F90546C3
:10E6E00008E0FFF741F9401B41F28831884201D927
:10E6F00003206CE54020022191FAA1F1B1FA81F1E9
:10E7000008430121B1EB601F03D18948006810E084
:10E7100058E04020022191FAA1F1B1FA81F10843B9
:10E720000221B1EB601F02D18148006A01E08048FC
:10E73000406A4021022292FAA2F2B2FA82F2114316
:10E7400001F01F020121914008400028C9D039E0A2
:10E75000FFE7FFF709F9054608E0FFF705F9401B59
:10E7600041F28831884201D9032030E5402002215E
:10E7700091FAA1F1B1FA81F108430121B1EB601FD7
:10E7800002D16B4800680FE04020022191FAA1F10C
:10E79000B1FA81F108430221B1EB601F02D1644854
:10E7A000006A01E06248406A4021022292FAA2F225
:10E7B000B2FA82F2114301F01F0201219140084098
:10E7C0000028CAD1E069002873D05948406800F099
:10E7D0000C0008286ED0E06902286CD100204FF0B0
:10E7E000807191FAA1F1B1FA81F1524A42F8210007
:10E7F000FFF7BAF8054606E0FFF7B6F8401B022817
:10E8000001D90320E3E42020010591FAA1F1B1FA36
:10E8100081F108430121B1EB601F02D14448006837
:10E820000FE02020010591FAA1F1B1FA81F108432E
:10E830000221B1EB601F02D13D48006A01E03C4873
:10E84000406A20210A0592FAA2F2B2FA82F211433A
:10E8500001F01F020121914008400028CCD1206A1C
:10E86000B0F5803F07D13248406820F40030A168FD
:10E8700008432F494860D4E9080108432C494968F6
:10E8800021F4741108432A4948600121080690FACE
:10E89000A0F0B0FA80F0274A42F82010FFF764F8A1
:10E8A000054609E0FFF760F8401B022804D9032061
:10E8B0008DE479E076E02CE02020010591FAA1F1C9
:10E8C000B1FA81F108430121B1EB601F02D1184870
:10E8D00000680FE02020010591FAA1F1B1FA81F161
:10E8E00008430221B1EB601F02D11148006A01E028
:10E8F0000F48406A20210A0592FAA2F2B2FA82F287
:10E90000114301F01F020121914008400028C9D0A5
:10E910004AE000204FF0807191FAA1F1B1FA81F143
:10E92000044A42F82100FFF71FF805460DE00000F9
:10E93000001002400000424200700040FFF714F84F
:10E94000401B022801D9032041E42020010591FA4F
:10E95000A1F1B1FA81F108430121B1EB601F02D1AD
:10E96000124800680FE02020010591FAA1F1B1FAE8
:10E9700081F108430221B1EB601F02D10B48006A0C
:10E9800001E00A48406A20210A0592FAA2F2B2FA8E
:10E9900082F2114301F01F0201219140084000283A
:10E9A000CCD101E0012012E4002010E4001002406C
:10E9B000F8B505460C4616460020009005B10CB986
:10E9C0000120F8BD00226946284600F01AF808B177
:10E9D0000120F6E7287B2070E87BE070687B6070A0
:10E9E000A87BA0705EB1E07803F0BEFAE0706078BA
:10E9F00003F0BAFA6070A07803F0B6FAA0700020B5
:10EA0000DFE72DE9F04780460C46914600250026B9
:10EA1000AA460027B8F1000F00D014B90120BDE8C4
:10EA2000F087D8F800004068C0F3800008B10120EA
:10EA3000F5E7404603F0C1FB05464FF46160B5FBC6
:10EA4000F0F7B5FBF0F100FB11503C21B0FBF1F009
:10EA500060704FF46160B5FBF0F100FB11503C2198
:10EA6000B0FBF1F201FB1200A070182F39D318206F
:10EA7000B7FBF0FAB7FBF0F100FB117020704046D5
:10EA800003F08FFB0646701C18B1AE4201D9761B0D
:10EA900001E04FF0FF360AEB4A00C000C0EB401126
:10EAA000C1EB0020A5EB00152946404603F00FFC02
:10EAB00008B10120B3E7701C38B12E4431464046FE
:10EAC00003F0EEFB40B10120A9E73146404603F0D8
:10EAD000E7FB08B10120A2E75146404603F08AFA5D
