:020000040800F2
:10000000A86A002015020008C1430008D53800087E
:10001000C5410008450A0008D95A00080000000040
:100020000000000000000000000000005F56000813
:10003000910A000800000000DD4800087157000820
:100040002F0200082F0200082F0200082F020008CC
:100050002F0200082F0200082F0200082F020008BC
:100060002F0200082F0200082F0200082F020008AC
:100070002F0200082F0200082F0200082F0200089C
:100080002F0200082F0200082F0200082F0200088C
:100090002F0200082F0200082F0200082F0200087C
:1000A0002F0200082F0200082F0200082F0200086C
:1000B0002F0200082F0200082F0200082F0200085C
:1000C0002F0200082F0200082F0200082F0200084C
:1000D0002F0200082F0200082F0200082F0200083C
:1000E0002F0200082F0200082F0200082F0200082C
:1000F0002F0200082F0200082F0200082F0200081C
:100100002F020008A54A00082F0200082F0200084D
:100110002F0200082F0200082F0200082F020008FB
:100120002F0200082F0200082F020008490A0008C9
:1001300000F002F800F05FF80AA090E8000C82449A
:100140008344AAF10107DA4501D100F054F8AFF277
:10015000090EBAE80F0013F0010F18BFFB1A43F0A5
:1001600001031847648C0000848C00000A444FF09F
:10017000000C10F8013B13F0070408BF10F8014B06
:100180001D1108BF10F8015B641E05D010F8016B4B
:10019000641E01F8016BF9D113F0080F1EBF10F8AF
:1001A000014BAD1C0C1B09D16D1E58BF01F801CBD2
:1001B000FAD505E014F8016B01F8016B6D1EF9D555
:1001C0009142D6D37047000000230024002500266A
:1001D000103A28BF78C1FBD8520728BF30C148BFAA
:1001E0000B607047642900F0FD80002070471FB548
:1001F0001FBD10B510BD00F0CCFB1146FFF7F7FF97
:1002000007F07EF900F0EAFB03B4FFF7F2FF03BC4E
:1002100005F06BFC0948804709480047FEE7FEE708
:10022000FEE7FEE7FEE7FEE7FEE7FEE7FEE7FEE7A6
:1002300004480549054A064B704700003558000838
:1002400031010008A8640020A86A0020A8660020E8
:10025000A8660020704753EA020C00F069802DE97F
:10026000F04B4FF00006002B1FBFB3FA83F503FAE3
:1002700005F424FA05F65E4012BF1643B2FA82F581
:1002800002FA05F4C5F120051EBF22FA05FC44EA76
:100290000C04203556EA044C4FEA144418BF641C81
:1002A0004FF000084FF00009904271EB030C39D376
:1002B000002919BFB1FA81F701FA07F6B0FA80F701
:1002C00000FA07F6C7F120071EBF20FA07FC46EA2E
:1002D0000C062037B6FBF4FCA7EB0507103F07F030
:1002E0001F0BCBF120060CFA0BFB2CFA06F644BFD1
:1002F000B3460026202FA4BF5E464FF0000B5BEAFA
:10030000060C08BF4FF0010B19EB0B09ABFB027C8D
:1003100048EB0608C01B06FB02CC0BFB03CC71EBC1
:100320000C01C1E70B46024641464846BDE8F08B4A
:1003300013B54FF000004FF00001AFF30080BDE8AF
:100340001C407047B2F120030AD5C2F1200320FA05
:1003500002F001FA03F321FA02F140EA03007047C8
:1003600021FA03F04FF00001704700000FB41CB5F4
:10037000074B06AA7B4469460090059800F0F1FA05
:100380000020694600F000FB1CBC5DF814FB000077
:100390001106000070B5044685690068C10601D5E4
:1003A000302600E02026C00707D070BDD4E9012127
:1003B00030469047206A401C20626D1EF6D570BD05
:1003C00070B5044685690078C00707D170BDD4E9CF
:1003D000012120209047206A401C20626D1EF6D526
:1003E00070BD00002DE9F041064600241068752913
:1003F000314616A510D0AFF30080002802DA404243
:1004000013A507E031688A0701D512A502E0490764
:1004100004D511A5012401E0AFF3008000210A22D8
:1004200006F1240709E0B0FBF2FCB0FBF2F302FB9B
:100430001C00303078541846491C0028F3D123465C
:100440002A463046BDE8F04100F02CBA000000001A
:100450002D0000002B000000200000002DE9F05FBF
:10046000894604464FF0000ADFF824B1FB44C0F887
:1004700020A02046E168884700287DD0252806D0A6
:10048000D4E901219047206A401C2062F1E7002551
:100490005F462046E16888472028064607DB312E64
:1004A00005D2B81910F8200C08B10543F1E7A807E8
:1004B00001D525F00405C4F81CA00027C4F818A035
:1004C0002A2E09D0304605F009FB38B304EB870823
:1004D000303EC8F8186019E059F8041B204604EBB8
:1004E00087029161E1688847012F064618D1E069CB
:1004F000002820DA25F020051DE0D8F8180000EBD0
:10050000800006EB40003038C8F818002046E1684B
:100510008847064605F0E2FA0028EED1012F0AD0FE
:100520002E2E08D12046E16888477F1C0646022F00
:1005300045F02005C4DBA069002803DA404245F0FD
:100540000105A061E80701D025F01005A6B1A6F1CC
:100550004100192802D8203645F400654A46314644
:10056000204625604D46FFF73DFE60B1012807D0CB
:10057000ED1D25F0070000E007E000F1080978E72D
:1005800005F1040975E730467AE7206ABDE8F09F77
:10059000D888000040EA010310B59B070FD1042A58
:1005A0000DD310C808C9121F9C42F8D020BA19BA3E
:1005B000884201D9012010BD4FF0FF3010BD1AB1A3
:1005C000D30703D0521C07E0002010BD10F8013BF8
:1005D00011F8014B1B1B07D110F8013B11F8014B1F
:1005E0001B1B01D1921EF1D1184610BD40EA010338
:1005F000024630B59B0710D14FF0013400E008C22D
:1006000008C91D1B9D4315EAC41FF8D013F0FF0154
:1006100002F8011B0DD01B0AF8E711F8013B002B73
:1006200002F8013B05D011F8013B002B02F8013B19
:10063000F3D130BD10B5431C02E010F8011B71B1BD
:100640008107FAD14FF0013202C88C1A8C4314EAA8
:10065000C211F9D0C01A0A0603D0C01E10BDC01ABC
:1006600010BD0A0401D0801E10BD0902FCD0401E3E
:1006700010BD421E12F8013F002BFBD111F8013BC7
:10068000002B02F8013BF9D17047032A40F2308079
:1006900010F0030C00F0158011F8013BBCF1020FC3
:1006A000624498BF11F801CB00F8013B38BF11F844
:1006B000013BA2F1040298BF00F801CB38BF00F85B
:1006C000013B11F0030300F02580083AC0F00880D8
:1006D00051F8043B083A51F804CBA0E80810F5E7BC
:1006E000121D5CBF51F8043B40F8043BAFF300809F
:1006F000D20724BF11F8013B11F801CB48BF11F814
:10070000012B24BF00F8013B00F801CB48BF00F8E3
:10071000012B704710B5203AC0F00B80B1E818509B
:10072000203AA0E81850B1E81850A0E81850BFF4DB
:10073000F5AF5FEA027C24BFB1E81850A0E818507A
:1007400044BF18C918C0BDE810405FEA827C24BFCE
:1007500051F8043B40F8043B08BF7047D20728BF5C
:1007600031F8023B48BF11F8012B28BF20F8023BAB
:1007700048BF00F8012B704702F0FF0343EA032251
:1007800042EA024200F002B84FF000020429C0F031
:10079000128010F0030C00F01B80CCF1040CBCF1B3
:1007A000020F18BF00F8012BA8BF20F8022BA1EB05
:1007B0000C0100F00DB85FEAC17C24BF00F8012BEA
:1007C00000F8012B48BF00F8012B70474FF00002E2
:1007D00000B5134694469646203922BFA0E80C5037
:1007E000A0E80C50B1F12001BFF4F7AF090728BF12
:1007F000A0E80C5048BF0CC05DF804EB890028BF8E
:1008000040F8042B08BF704748BF20F8022B11F0B6
:10081000804F18BF00F8012B704700004FF0013CDB
:1008200050F8042B51F8043B9A4221D1A2EB0C035F
:10083000934313EACC1317D150F8042B51F8043B1F
:100840009A4215D1A2EB0C03934313EACC130BD1BC
:1008500050F8042B51F8043B9A4209D1A2EB0C0347
:10086000934313EACC13DBD04FF00000704700BF76
:10087000D01A01BAB1FA81F101F0180122FA01F09F
:10088000CB40C1F12001DBB2C0B2C01A2CFA01F397
:10089000D11A914311EAC311E6D1704770477047EE
:1008A000704770472DE9F0470D4699469246044639
:1008B00000F124080168880604D5E06921F01001E0
:1008C000216000E00120A84201DD471B00E0002775
:1008D000A1697A1902EB0900081AA0612078C00604
:1008E00002D42046FFF756FD002608E0D4E9012196
:1008F0001AF806009047206A401C761C20624E457C
:10090000F4DB2078C0060AD52046FFF743FD06E059
:10091000D4E9012130209047206A401C2062381E13
:10092000A7F10107F4DC07E0D4E9012118F805007C
:100930009047206A401C2062281EA5F10105F3DCC7
:100940002046FFF73DFD2078000602D50220BDE8D5
:10095000F0870120FBE7000001694A1C026108786A
:10096000704700B58FB0CDE90131002105910549EF
:100970007944CDE9031011466846FFF76FFD0FB0CB
:1009800000BD0000E5FFFFFF0A6802F8010B0A60E6
:100990007047754600F02CF8AE4605006946534690
:1009A00020F00700854618B020B5FFF741FCBDE8F0
:1009B00020404FF000064FF000074FF000084FF0C6
:1009C000000B21F00701AC46ACE8C009ACE8C00957
:1009D000ACE8C009ACE8C0098D46704710B50446C4
:1009E000AFF300802046BDE81040FFF70DBC0000CB
:1009F000004870474864002000B585B000BF0F482C
:100A0000806940F010000D4988610846806900F057
:100A10001000009000BF00BF022001900120029052
:100A200002200390049001A9054801F085F90022F5
:100A30000221034801F028FB05B000BD0010024070
:100A40000010014000BFFEE710B5074840681028BD
:100A500004D10649C86D00F0A9FB03E00349886D85
:100A600000F0A4FB10BD0000A0020020E80100205F
:100A700010B5046863604468102C04D10468A26057
:100A80000468E16003E00468A1600468E26010BDEE
:100A90007047000010B50446042002F0B5FE01487E
:100AA000046010BD0000002030B50446002504E0BD
:100AB0004FF47A7000F004F86D1CA542F8D330BDF5
:100AC00070B5034600224FF0E02675690D4E36687A
:100AD00003FB06F44FF0E026B16910E04FF0E0268A
:100AE000B06988420BD0884202D20E1A324402E02A
:100AF0002E1A0E4432440146A24200D300E0EDE734
:100B000000BF70BD0000002010B54FF40D71002033
:100B100003F0E4FB094908604FF40B71002003F077
:100B2000DDFB074908600548006820B108460068F9
:100B300008B1002010BD0220FCE7000020000020CA
:100B4000240000202DE9FC4105460027002405E093
:100B5000601CC4B2287800B902E06D1CFA2CF7DBE7
:100B600000BFFA2C02D1FF20BDE8FC81002408E080
:100B70006D1E28782E2802D16D1C2F4603E0601CC4
:100B8000C4B2062CF4DB00BF39466846FFF72EFDE1
:100B9000002407E01DF8040004F0A9FF0DF804008C
:100BA000601CC4B2052CF5DB002425E000261EE005
:100BB00004EB840000EBC400114901EB800050F805
:100BC0002600007800B914E004EB840101EBC401B5
:100BD0000B4A02EB810151F826006946FFF71EFE21
:100BE00018B946EA0410C0B2BEE7701CC6B20D2E9A
:100BF000DEDB00BF601CC4B2072CD7DBFF20B3E7ED
:100C0000280000200021074AD1610749096941F005
:100C10000401054A11611146096941F04001116161
:100C20007047000028640020002002400021074A8D
:100C3000D1610749096941F00201054A1161114674
:100C40004861096941F04001116170472864002042
:100C5000002002400022054BDA61054A126942F089
:100C60000102034B1A6101807047000028640020D4
:100C7000002002401748C06800F0100028B1164854
:100C8000C06940F002001449C8611248C06800F011
:100C9000040028B11048C06940F001000E49C86145
:100CA0000C48C06900F0010068B10B48C06940F011
:100CB00004000949C86100BF0648C06920F001006E
:100CC0000449C86100BF00BF14200249C86000BFCA
:100CD00070470000002002402864002070B50446E0
:100CE00001F0D8F9054609E0601C38B124B101F0E3
:100CF000D1F9401BA04201D9032070BD1248C06841
:100D000000F001000028EFD10F48C06800F020007B
:100D100020B100BF20200C49C86000BF0A48C0684D
:100D200000F0100048B90848C06900F0010020B97F
:100D30000548C06800F0040018B1FFF79BFF0120D0
:100D4000DBE70020D9E7000000200240014609B996
:100D50000120704791F82100022801D10120F8E715
:100D60000868006820F001000A68106000200A6826
:100D700010600A6850600A6890600A68D060F94A9A
:100D80000868904254D9F74A783A0868904201D1ED
:100D9000022049E0F34A643A0868904201D12020D9
:100DA00042E0F04A503A0868904201D140153BE0D9
:100DB000EC4A3C3A0868904202D14FF4005033E0CC
:100DC000E84A283A0868904202D14FF400302BE0FC
:100DD000E44A143A0868904202D14FF4001023E02C
:100DE000E04A0868904201D180041DE0DE4A0868AC
:100DF000904201D1022017E0DB4A14320868904289
:100E000001D1202010E0D84A28320868904201D150
:100E1000401509E0D44A3C320868904202D14FF4B0
:100E2000005001E04FF40030CF4A121F106053E031
:100E3000CC4A783A0868904201D1022049E0C94A78
:100E4000643A0868904201D1202042E0C54A503AF5
:100E50000868904201D140153BE0C24A3C3A08681C
:100E6000904202D14FF4005033E0BE4A283A08685D
:100E7000904202D14FF400302BE0BA4A143A08688D
:100E8000904202D14FF4001023E0B64A0868904225
:100E900001D180041DE0B44A0868904201D10220CB
:100EA00017E0B14A14320868904201D1202010E0C6
:100EB000AD4A28320868904201D1401509E0AA4A9B
:100EC0003C320868904202D14FF4005001E04FF4E8
:100ED0000030A44A803A5060A24A0868904254D92F
:100EE000A04A783A0868904201D1082049E09D4A1A
:100EF000643A0868904201D1802042E0994A503A11
:100F00000868904201D1C0143BE0964A3C3A086818
:100F1000904202D14FF4004033E0924A283A0868E8
:100F2000904202D14FF400202BE08E4A143A086818
:100F3000904202D14FF4000023E08A4A08689042B0
:100F400001D100051DE0884A0868904201D10820BF
:100F500017E0854A14320868904201D1802010E0E1
:100F6000814A28320868904201D1C01409E07E4AC3
:100F70003C320868904202D14FF4004001E04FF447
:100F80000020794A121F106053E0764A783A0868C8
:100F9000904201D1082049E0724A643A08689042C0
:100FA00001D1802042E06F4A503A0868904201D156
:100FB000C0143BE06B4A3C3A0868904202D14FF4BF
:100FC000004033E0674A283A0868904202D14FF463
:100FD00000202BE0634A143A0868904202D14FF493
:100FE000000023E05F4A0868904201D100051DE03F
:100FF0005D4A0868904201D1082017E05A4A14322D
:101000000868904201D1802010E0574A28320868D1
:10101000904201D1C01409E0534A3C320868904222
:1010200002D14FF4004001E04FF400204D4A803AD5
:1010300050604C4A0868904254D94A4A783A086845
:10104000904201D1042049E0464A643A086890423F
:1010500001D1402042E0434A503A0868904201D111
:1010600000153BE03F4A3C3A0868904202D14FF4F9
:10107000804033E03B4A283A0868904202D14FF45E
:1010800080202BE0374A143A0868904202D14FF48E
:10109000800023E0334A0868904201D1C0041DE07B
:1010A000314A0868904201D1042017E02E4A1432D8
:1010B0000868904201D1402010E02B4A283208688D
:1010C000904201D1001509E0274A3C32086890425D
:1010D00002D14FF4804001E04FF48020224A121FD9
:1010E000106055E01F4A783A0868904201D1042008
:1010F0004CE01C4A643A0868904201D1402045E027
:10110000184A503A0868904201D100153EE0154A4D
:101110003C3A0868904202D14FF4804036E0114AD0
:10112000283A0868904202D14FF480202EE00D4A00
:10113000143A0868904202D14FF4800026E0094A30
:101140000868904201D1C00420E0074A0868904234
:1011500001D104201AE0044A14320868904205D1F3
:10116000402013E080000240080402400D4A086855
:10117000904201D1001509E00A4A143208689042F1
:1011800002D14FF4804001E04FF48020064A5060C5
:101190000020486381F8210000BF81F8200000BFD3
:1011A00000BFD6E5300402400000024010B50446FE
:1011B000F8492068884255D9F7480068F54A783AD6
:1011C0002168914201D108214AE0F24A643A21683B
:1011D000914201D1802143E0EE4A503A2168914288
:1011E00001D1C9143CE0EB4A3C3A2168914202D15A
:1011F0004FF4004134E0E74A283A2168914202D195
:101200004FF400212CE0E34A143A2168914202D1C4
:101210004FF4000124E0DF4A2168914201D1090521
:101220001EE0DD4A08322168914201D1082117E011
:10123000D94A1C322168914201D1802110E0D64A5E
:1012400030322168914201D1C91409E0D24A4432B6
:101250002168914202D14FF4004101E04FF4002196
:10126000084055E0CB4880380068CA4A783A21687F
:10127000914201D108214AE0C64A643A216891426C
:1012800001D1802143E0C34A503A2168914201D103
:10129000C9143CE0BF4A3C3A2168914202D14FF464
:1012A000004134E0BB4A283A2168914202D14FF410
:1012B00000212CE0B74A143A2168914202D14FF440
:1012C000000124E0B34A2168914201D109051EE0E2
:1012D000B14A08322168914201D1082117E0AE4A93
:1012E0001C322168914201D1802110E0AA4A30329B
:1012F0002168914201D1C91409E0A74A443221680A
:10130000914202D14FF4004101E04FF40021084026
:10131000002873D020680068C0F3C0000028F8D00F
:101320002068006820F0080021680860994920685A
:10133000884255D9974978392068884201D10820D8
:101340004AE0944964392068884201D1802043E012
:10135000904950392068884201D1C0143CE08D4941
:101360003C392068884202D14FF4004034E089497A
:1013700028392068884202D14FF400202CE08549AA
:1013800014392068884202D14FF4000024E08149DA
:101390002068884201D100051EE07F49083120689D
:1013A000884201D1082017E07B491C31206888421F
:1013B00001D1802010E0784930312068884201D185
:1013C000C01409E0744944312068884202D14FF4C6
:1013D000004001E04FF400206F49091D086055E00E
:1013E0006C4978392068884201D108204BE069496E
:1013F00064392068884202D1802044E057E0654982
:1014000050392068884201D1C0143CE061493C3920
:101410002068884202D14FF4004034E05D49283909
:101420002068884202D14FF400202CE05949143939
:101430002068884202D14FF4000024E0554920681A
:10144000884201D100051EE05349083120688842D6
:1014500001D1082017E050491C312068884201D191
:10146000802010E04C4930312068884201D1C014FE
:1014700009E0494944312068884202D14FF40040D4
:1014800001E04FF40020434980394860606B40F030
:1014900001006063042084F8210000BF002084F86C
:1014A000200000BF206B10B12046216B88473949CE
:1014B0002068884255D938480068364A783A216809
:1014C000914201D104214AE0324A643A21689142B2
:1014D00001D1402143E02F4A503A2168914201D185
:1014E00009153CE02B4A3C3A2168914202D14FF465
:1014F000804134E0274A283A2168914202D14FF4D2
:1015000080212CE0234A143A2168914202D14FF401
:10151000800124E01F4A2168914201D1C9041EE0E4
:101520001D4A08322168914201D1042117E01A4A6C
:101530001C322168914201D1402110E0164A30321C
:101540002168914201D1091509E0134A443221680A
:10155000914202D14FF4804101E04FF480210840D4
:1015600059E00C48803800680A4A783A216891426C
:1015700001D104214EE0074A643A2168914201D129
:10158000402147E0034A503A2168914206D10915AB
:1015900040E000008000024000040240F74A216859
:1015A000914202D14FF4804134E0F44A1432216870
:1015B000914202D14FF480212CE0F04A2832216878
:1015C000914202D14FF4800124E0EC4A3C32216880
:1015D000914201D1C9041DE0E94A2168914201D13B
:1015E000042117E0E64A14322168914201D14021DA
:1015F00010E0E34A28322168914201D1091509E03F
:10160000DF4A3C322168914202D14FF4804101E02F
:101610004FF48021084080B320680068C0F3800048
:1016200058B32068006800F0200028B920680068DE
:1016300020F0040021680860D0493C3120688842CD
:1016400055D9CE493C392068884201D104204AE06E
:10165000CA4928392068884201D1402043E0C7495F
:1016600014392068884201D100153CE0C349206844
:10167000884203D14FF4804035E094E0BF491431F3
:101680002068884202D14FF480202CE0BB492831E9
:101690002068884202D14FF4800024E0B7493C31F1
:1016A0002068884201D1C0041DE0B5492068884205
:1016B00001D1042017E0B24914312068884201D1D9
:1016C000402010E0AE4928312068884201D1001541
:1016D00009E0AB493C312068884202D14FF4804098
:1016E00001E04FF48020A649091F086053E0A34998
:1016F0003C392068884201D1042049E09F492839BB
:101700002068884201D1402042E09C491439206879
:10171000884201D100153BE098492068884202D1F7
:101720004FF4804034E0954914312068884202D15A
:101730004FF480202CE0914928312068884202D162
:101740004FF4800024E08D493C312068884201D16B
:10175000C0041DE08A492068884201D1042017E0B6
:10176000874914312068884201D1402010E0844923
:1017700028312068884201D1001509E080493C31B8
:101780002068884202D14FF4804001E04FF480206D
:101790007A4944394860112084F82100E06A10B188
:1017A0002046E16A884775493C312068884255D90E
:1017B000734808380068714A3C3A2168914201D167
:1017C000022149E06D4A283A2168914201D1202145
:1017D00042E06A4A143A2168914201D149153BE03E
:1017E000664A2168914202D14FF4005134E0634AC5
:1017F00014322168914202D14FF400312CE05F4A4B
:1018000028322168914202D14FF4001124E05B4A52
:101810003C322168914201D189041DE0584A216877
:10182000914201D1022117E0554A143221689142B8
:1018300001D1202110E0524A28322168914201D181
:10184000491509E04E4A3C322168914202D14FF4D9
:10185000005101E04FF40031084054E0474844385B
:101860000068464A3C3A2168914201D1022149E090
:10187000424A283A2168914201D1202142E03F4A60
:10188000143A2168914201D149153BE03B4A216855
:10189000914202D14FF4005134E0384A14322168A9
:1018A000914202D14FF400312CE0344A28322168B1
:1018B000914202D14FF4001124E0304A3C322168B9
:1018C000914201D189041DE02D4A2168914201D144
:1018D000022117E02A4A14322168914201D12021C5
:1018E00010E0274A28322168914201D1491509E0C8
:1018F000234A3C322168914202D14FF4005101E069
:101900004FF40031084080B320680068C0F3400005
:1019100058B32068006800F0200028B920680068EB
:1019200020F002002168086014493C312068884298
:1019300058D912493C392068884201D102204DE033
:101940000E4928392068884201D1202046E00B4901
:1019500014392068884201D140153FE007492068CA
:10196000884203D14FF4005038E09EE0034914311F
:101970002068884206D14FF400302FE04400024036
:101980000804024049492068884202D14FF40010FF
:1019900024E0464914312068884201D180041DE0CA
:1019A00043492068884201D1022017E040491431A0
:1019B0002068884201D1202010E03D49283120686C
:1019C000884201D1401509E039493C3120688842FC
:1019D00002D14FF4005001E04FF400303449091FA8
:1019E000086053E0314964392068884201D10220FF
:1019F00049E02E4950392068884201D1202042E038
:101A00002A493C392068884201D140153BE02749EA
:101A100028392068884202D14FF4005033E023492E
:101A200014392068884202D14FF400302BE01F495E
:101A30002068884202D14FF4001024E01B49143181
:101A40002068884201D180041DE01949206888423D
:101A500001D1022017E0164914312068884201D1D3
:101A6000202010E0124928312068884201D1401519
:101A700009E00F493C312068884202D14FF4005000
:101A800001E04FF4003009496C394860606B6063D5
:101A9000012084F8210000BF002084F8200000BF4E
:101AA000A06A10B12046A16A884710BD6C000240B0
:101AB000080402400146002209B90120704791F84C
:101AC000210010B9002081F82000022081F82100B7
:101AD0000868026843F6F0708243D1E901031843B5
:101AE000CB6818430B6918434B6918438B6918433B
:101AF000CB69184302430868026000204863012054
:101B000081F821000020D9E72DE9F04104460D4677
:101B100016461F4600BF94F82000012802D102207B
:101B2000BDE8F081012084F8200000BF022084F885
:101B300021002068006820F00100216808603B4611
:101B4000324629462046FEF793FF2068006840F0A1
:101B50000200216808602068006840F004002168E5
:101B600008602068006840F008002168086020686C
:101B7000006840F00100216808600020D0E731B51E
:101B8000002400F087FA044600BF00F083FA001B2F
:101B900000998842F9D338BD2DE9F04104460E463C
:101BA0000127002500BF2648007E012802D102201F
:101BB000BDE8F08101202249087600BF2068022894
:101BC00013D14CF25030FFF789F890BB0120FFF79A
:101BD00019F84CF25030FFF781F8074619480069B0
:101BE00020F004001749086123E04CF25030FFF761
:101BF00075F8F0B94FF0FF303060A56812E0284664
:101C0000FFF714F84CF25030FFF768F807460D481C
:101C1000006920F002000B4908610FB1356007E050
:101C200005F50065D4E9021001EBC020A842E6D812
:101C300000BF00BF00200249087600BF3846B7E762
:101C400028640020002002400348006940F0800022
:101C50000149086100207047002002402DE9FE4F35
:101C600005468B4617469846012600240020029020
:101C700000BF2448007E012802D10220BDE8FE8F6B
:101C800001202049087600BF4CF25030FFF726F8BB
:101C9000064686BB012D02D10120029006E0022DEE
:101CA00002D10220029001E00420029000241EE0F4
:101CB0002201B946C24648465146FEF743FB80B270
:101CC0000190022000FB04B000900199FEF7C2FFD2
:101CD0004CF25030FFF702F806460B48006920F03E
:101CE00001000949086106B104E0601CC4B2029811
:101CF0008442DDDB00BF00BF00200249087600BF40
:101D00003046BBE7286400200020024007480069F5
:101D100000F0800028B10648044948600548486042
:101D200001E0012070470020FCE700000020024095
:101D300023016745AB89EFCD2DE9F8470246002422
:101D4000002000258446002700237BE14FF0010896
:101D500008FA03F4D1F8008008EA0400A0427DD11B
:101D6000DFF8ECA2D1F80480A8EB0A09D0453AD0FC
:101D700014DCB8F1030F50D009DCB8F1000F31D0FA
:101D8000B8F1010F1CD0B8F1020F49D120E0B8F131
:101D9000110F18D0B8F1120F42D11EE0B9F5881F0B
:101DA00025D006DCB9F5803F20D0B9F5801F37D1AA
:101DB0001AE0B9F5001F18D0B9F5041F30D117E0AB
:101DC000D1F80CC02DE0D1F80C8008F1040C28E00B
:101DD000D1F80C8008F1080C23E0D1F80C8008F150
:101DE0000C0C1EE000BF00BF00BF00BF00BF00BF63
:101DF000D1F80880B8F1000F02D14FF0040C0BE0CD
:101E0000D1F80880B8F1010F03D14FF0080C14612C
:101E100002E04FF0080C546103E04FF0000C00E0CA
:101E200000BF00BFFF2801D8904601E002F104087E
:101E30004646FF2802D84FEA830803E0A3F10808CA
:101E40004FEA88084746D6F800804FF00F0909FA94
:101E500007F928EA09080CFA07F900E07AE048EAED
:101E60000908C6F80080D1F8048008F08058B8F15D
:101E7000805F6FD100BFDFF8DC81D8F8188048F0B0
:101E80000108DFF8D091C9F81880C846D8F8188042
:101E900008F00108CDF8008000BF00BF4FEAB93854
:101EA0004FEA930958F829504FEA83784FEA187996
:101EB0004FF00F0808FA09F825EA0805DFF89881BD
:101EC000424502D14FF0000824E0DFF890814245FE
:101ED00002D14FF001081DE0DFF88481424502D1B4
:101EE0004FF0020816E0DFF87C81424502D14FF046
:101EF00003080FE0DFF87081424502D14FF004087B
:101F000008E0DFF86881424502D14FF0050801E0A2
:101F10004FF006084FEA83794FEA197908FA09F871
:101F200048EA0505DFF848814FEA930948F8295047
:101F3000D1F8048008F48038B8F5803F0BD1DFF881
:101F40003481D8F8008048EA0008DFF82891C9F801
:101F500000800AE075E0DFF81C81D8F8008028EAEC
:101F60000008DFF81091C9F80080D1F8048008F467
:101F70000038B8F5003F0ED1DFF8F88008F104080A
:101F8000D8F8008048EA0008DFF8E89009F1040971
:101F9000C9F800800DE0DFF8DC8008F10408D8F80B
:101FA000008028EA0008DFF8CC9009F10409C9F89C
:101FB0000080D1F8048008F48018B8F5801F0ED195
:101FC000DFF8B08008F10808D8F8008048EA000877
:101FD000DFF8A09009F10809C9F800800DE0DFF8EA
:101FE000948008F10808D8F8008028EA0008DFF893
:101FF000849009F10809C9F80080D1F8048008F438
:102000000018B8F5001F0ED1DFF8688008F10C0841
:10201000D8F8008048EA0008DFF8589009F10C0968
:10202000C9F800800DE0DFF84C8008F10C08D8F802
:10203000008028EA0008DFF83C9009F10C09C9F893
:1020400000805B1C102BFFF481AEBDE8F887000018
:10205000000011100010024000080140000C014077
:10206000001001400014014000180140001C014014
:102070000800014000040140024693680B400BB188
:10208000012000E0002070470AB1016101E00B046B
:102090000361704701480068704700009C01002000
:1020A00002480068401C0149086070479C010020FC
:1020B00010B50848006840F0100006490860042088
:1020C00000F068F8002000F007F800F017F8002092
:1020D00010BD00000020024070B5044600F078FA00
:1020E0004FF47A71B0FBF1F5284601F0A1FB002214
:1020F0002146501E00F010F8002070BD704700BF50
:1021000000F01F02012191404209920002F1E022F9
:10211000C2F8001100BF70472DE9F05F80460D4600
:102120001646002702F04EF9074639462A4633463E
:1021300001F00700C0F1070ABAF1040F02D94FF00D
:10214000040A01E0C0F1070AD14600F1040ABAF11D
:10215000070F02D24FF0000A01E0A0F1030AD446B3
:102160004FF0010A0AFA09FAAAF1010A0AEA020A78
:102170000AFA0CFA4FF0010B0BFA0CFBABF1010B56
:102180000BEA030B4AEA0B042146404602F022F90F
:10219000BDE8F09F00BF00F00702064B19684FF63C
:1021A000FF031940044B0B4343EA0221014B196022
:1021B00000BF70470CED00E00000FA05F8B50446DA
:1021C00000260025207800F00100002877D000BF0D
:1021D0005648C06940F080505449C8610846C069FB
:1021E00000F08050009000BF00BF5148006840F4EC
:1021F00080704F490860FFF74DFF064606E0FFF785
:1022000049FF801B642801D90320F8BD48480068B5
:1022100000F480700028F2D04448006A00F4407551
:10222000002D5ED0A08800F44070A84259D03F48ED
:10223000006A20F440750120010491FAA1F1B1FA7D
:1022400081F13C4A02EB8101C1F8000400204FF407
:10225000803191FAA1F1B1FA81F102EB8101C1F86B
:1022600000043248056205F0010048B3FFF712FF91
:10227000064608E0FFF70EFF801B41F288318842D6
:1022800001D90320C1E74020022191FAA1F1B1FA5E
:1022900081F108430121B1EB601F02D1234800689E
:1022A00011E04020022191FAA1F1B1FA81F1084335
:1022B0000221B1EB601F04D11C48006A03E018E062
:1022C0000FE01A48406A4021022292FAA2F2B2FAC2
:1022D00082F2114301F01F020121914008400028C1
:1022E000C8D01248006A20F44070616808430F4962
:1022F0000862207800F00200022807D10B484068ED
:1023000020F44040A168084308494860207800F064
:102310001000102807D10548406820F4800061694A
:1023200008430249486000206FE7000000100240A7
:10233000007000400000424270B504460D46002681
:102340009F48006800F00700A8420ED29C48006831
:1023500020F0070028439A4908600846006800F00A
:102360000700A84201D0012070BD207800F00200D3
:10237000022807D19348406820F0F000A168084384
:1023800090494860207800F0010000287CD0606807
:1023900001282DD12020010391FAA1F1B1FA81F198
:1023A00008430121B1EB601F02D1864800680FE0AD
:1023B0002020010391FAA1F1B1FA81F10843022131
:1023C000B1EB601F02D17F48006A01E07D48406A9E
:1023D00020210A0392FAA2F2B2FA82F2114301F02A
:1023E0001F02012191400840002860D10120BBE775
:1023F000606802282CD12020010591FAA1F1B1FAE0
:1024000081F108430121B1EB601F02D16D480068E2
:102410000FE02020010591FAA1F1B1FA81F1084302
:102420000221B1EB601F02D16648006A01E06548F5
:10243000406A20210A0592FAA2F2B2FA82F211430E
:1024400001F01F0201219140084078BB01208BE779
:102450002020022191FAA1F1B1FA81F10843012172
:10246000B1EB601F02D15748006810E02020022124
:1024700091FAA1F1B1FA81F108430221B1EB601F99
:1024800003D15048006A02E054E04E48406A2021DF
:10249000022292FAA2F2B2FA82F2114301F01F0272
:1024A00001219140084008B901205DE7FFE7454858
:1024B000406820F003006168084342494860FFF724
:1024C000E9FD06466068012810D108E0FFF7E2FD4B
:1024D000801B41F28831884201D9032044E7394802
:1024E000406800F00C000428F0D123E06068022866
:1024F00010D108E0FFF7CEFD801B41F28831884201
:1025000001D9032030E72F48406800F00C0008286C
:10251000F0D10FE008E0FFF7BDFD801B41F28831EC
:10252000884201D903201FE72648406800F00C00CC
:102530000028F0D12248006800F00700A8420ED918
:102540001F48006820F0070028431D49086008461E
:10255000006800F00700A84201D0012004E72078BD
:1025600000F00400042807D11648406820F4E06019
:10257000E168084313494860207800F00800082803
:1025800008D11048406820F46050216940EAC10039
:102590000C49486000F04EF80A49496801F0F00122
:1025A000F02292FAA2F2B2FA82F2D140064A515CCB
:1025B000C840064908600020FFF78EFD0020D3E6E2
:1025C0000020024000100240308D0008A0010020D1
:1025D0000148006870470000A001002000B5FFF727
:1025E000F7FF0749496801F4E0614FF4E06292FAAD
:1025F000A2F2B2FA82F2D140024A515CC84000BD58
:1026000000100240408D000800B5FFF7E1FF0749C8
:10261000496801F460514FF4605292FAA2F2B2FAA2
:1026200082F2D140024A515CC84000BD0010024015
:10263000408D0008F0B585B00FF28C0C9CE8E010DE
:1026400001A8A0E8E01024A52D6800950021002431
:10265000002200230020214D696801F00C056DB3B4
:10266000042D02D0082D28D101E01D4828E001F4F6
:1026700070154FF4701696FAA6F6B6FA86F6F5407F
:1026800001AE735D01F4803595B1144D6D6805F4AC
:1026900000354FF4003696FAA6F6B6FA86F6F540FF
:1026A0001DF805400E4DB5FBF4F505FB03F202E005
:1026B0000C4D03FB05F2104602E000BF084800BFC6
:1026C00000BF05B0F0BD00000203040506070809BD
:1026D0000A0B0C0D0E0F101001020000001002403A
:1026E00000127A0000093D0038B504460025207824
:1026F00000F0010000287CD0F848406800F00C0091
:1027000004280CD0F548406800F00C00082837D1A8
:10271000F248406800F48030B0F5803F30D120208E
:10272000010391FAA1F1B1FA81F108430121B1EB62
:10273000601F02D1E94800680FE02020010391FAF0
:10274000A1F1B1FA81F108430221B1EB601F02D17E
:10275000E248006A01E0E148406A20210A0392FA57
:10276000A2F2B2FA82F2114301F01F02012191405C
:1027700008400028BFD0606800283AD1012038BD49
:1027800000BF6068B0F5803F06D1D448006840F4CF
:102790008030D249086028E0606858B9CF480068A6
:1027A00020F48030CD4908600846006820F480207D
:1027B00008601AE06068B0F5A02F0BD1C748006828
:1027C00040F48020C54908600846006840F4803025
:1027D00008600AE0C148006820F48030BF49086002
:1027E0000846006820F48020086000BF6068C8B315
:1027F00000E06FE0FFF74EFC054606E0FFF74AFCFD
:10280000401B642801D90320B9E72020010391FA75
:10281000A1F1B1FA81F108430121B1EB601F02D1AE
:10282000AE4800680FE02020010391FAA1F1B1FA4F
:1028300081F108430221B1EB601F02D1A748006A71
:1028400001E0A648406A20210A0392FAA2F2B2FAF5
:1028500082F2114301F01F0201219140084000283B
:10286000CCD037E0FFE7FFF715FC054606E0FFF7A1
:1028700011FC401B642801D9032080E720200103BC
:1028800091FAA1F1B1FA81F108430121B1EB601F86
:1028900002D1924800680FE02020010391FAA1F1D3
:1028A000B1FA81F108430221B1EB601F02D18B48DC
:1028B000006A01E08948406A20210A0392FAA2F2E4
:1028C000B2FA82F2114301F01F0201219140084047
:1028D0000028CCD1207800F0020002284ED17F4899
:1028E000406800F00C0050B17C48406800F00C00DB
:1028F000082844D17948406800F4803078BB202013
:10290000022191FAA1F1B1FA81F108430121B1EB61
:10291000601F02D1714800680FE02020022191FA67
:10292000A1F1B1FA81F108430221B1EB601F02D19C
:102930006A48006A01E06948406A2021022292FA4E
:10294000A2F2B2FA82F2114301F01F02012191407A
:10295000084028B12069012802D001200FE70EE0CD
:102960005E48006820F0F800F82292FAA2F2B2FA6B
:1029700082F26169914008435849086091E02069FA
:10298000F0B3012090FAA0F1B1FA81F1544A42F873
:102990002100FFF77FFB054606E0FFF77BFB401BAE
:1029A000022801D90320EAE62020022191FAA1F1B0
:1029B000B1FA81F108430121B1EB601F02D1474810
:1029C00000680FE02020022191FAA1F1B1FA81F113
:1029D00008430221B1EB601F02D14048006A01E0C8
:1029E0003E48406A2021022292FAA2F2B2FA82F212
:1029F000114301F01F02012191400840002800E02E
:102A00000FE0CAD03548006820F0F800F82292FAAA
:102A1000A2F2B2FA82F26169914008432F4908603C
:102A20003FE00020012191FAA1F1B1FA81F12C4A95
:102A300042F82100FFF72EFB054606E0FFF72AFBD0
:102A4000401B022801D9032099E62020022191FA97
:102A5000A1F1B1FA81F108430121B1EB601F02D16C
:102A60001E4800680FE02020022191FAA1F1B1FA7E
:102A700081F108430221B1EB601F02D11748006ABF
:102A800001E01648406A2021022292FAA2F2B2FA2C
:102A900082F2114301F01F020121914008400028F9
:102AA000CCD1207800F0080008284BD1A069A8B349
:102AB000012191FAA1F0B0FA80F0094A02EB8000FE
:102AC000C0F88014FFF7E6FA05460BE0FFF7E2FADC
:102AD000401B022806D9032051E6000000100240E6
:102AE000000042426020022191FAA1F1B1FA81F185
:102AF00008430121B1EB601F02D1F948006810E0E2
:102B00006020022191FAA1F1B1FA81F1084302217A
:102B1000B1EB601F03D1F248006A02E013E0F04815
:102B2000406A6021022292FAA2F2B2FA82F21143C2
:102B300001F01F020121914008400028C6D0012069
:102B4000FFF71DF841E00020012191FAA1F1B1FA4F
:102B500081F1E44A02EB8101C1F88004FFF79AFA9F
:102B6000054606E0FFF796FA401B022801D903202C
:102B700005E66020022191FAA1F1B1FA81F1084342
:102B80000121B1EB601F02D1D54800680FE0602041
:102B9000022191FAA1F1B1FA81F108430221B1EBCE
:102BA000601F02D1CE48006A01E0CD48406A602132
:102BB000022292FAA2F2B2FA82F2114301F01F024B
:102BC0000121914008400028CCD1207800F0040079
:102BD000042875D100BFC248C06940F08050C04988
:102BE000C8610846C06900F08050009000BF00BF77
:102BF000BD48006840F48070BB490860FFF74AFA9E
:102C0000054606E0FFF746FA401B642801D9032079
:102C1000B5E5B548006800F480700028F2D000BF28
:102C2000E068012806D1AE48006A40F00100AC49D6
:102C3000086227E0E06858B9A948006A20F001005E
:102C4000A74908620846006A20F00400086219E0FB
:102C5000E06805280BD1A248006A40F00400A049B2
:102C600008620846006A40F0010008620AE09C48D9
:102C7000006A20F001009A4908620846006A20F0C4
:102C80000400086200BFE068D0B3FFF703FA05460E
:102C900008E0FFF7FFF9401B41F28831884201D973
:102CA00003206CE54020022191FAA1F1B1FA81F1F3
:102CB00008430121B1EB601F03D18948006810E08F
:102CC00058E04020022191FAA1F1B1FA81F10843C4
:102CD0000221B1EB601F02D18148006A01E0804807
:102CE000406A4021022292FAA2F2B2FA82F2114321
:102CF00001F01F020121914008400028C9D039E0AD
:102D0000FFE7FFF7C7F9054608E0FFF7C3F9401BE7
:102D100041F28831884201D9032030E54020022168
:102D200091FAA1F1B1FA81F108430121B1EB601FE1
:102D300002D16B4800680FE04020022191FAA1F116
:102D4000B1FA81F108430221B1EB601F02D164485E
:102D5000006A01E06248406A4021022292FAA2F22F
:102D6000B2FA82F2114301F01F02012191400840A2
:102D70000028CAD1E069002873D05948406800F0A3
:102D80000C0008286ED0E06902286CD100204FF0BA
:102D9000807191FAA1F1B1FA81F1524A42F8210011
:102DA000FFF778F9054606E0FFF774F9401B0228A3
:102DB00001D90320E3E42020010591FAA1F1B1FA41
:102DC00081F108430121B1EB601F02D14448006842
:102DD0000FE02020010591FAA1F1B1FA81F1084339
:102DE0000221B1EB601F02D13D48006A01E03C487E
:102DF000406A20210A0592FAA2F2B2FA82F2114345
:102E000001F01F020121914008400028CCD1206A26
:102E1000B0F5803F07D13248406820F40030A16807
:102E200008432F494860D4E9080108432C49496800
:102E300021F4741108432A4948600121080690FAD8
:102E4000A0F0B0FA80F0274A42F82010FFF722F9EC
:102E5000054609E0FFF71EF9401B022804D90320AC
:102E60008DE479E076E02CE02020010591FAA1F1D3
:102E7000B1FA81F108430121B1EB601F02D118487A
:102E800000680FE02020010591FAA1F1B1FA81F16B
:102E900008430221B1EB601F02D11148006A01E032
:102EA0000F48406A20210A0592FAA2F2B2FA82F291
:102EB000114301F01F020121914008400028C9D0B0
:102EC0004AE000204FF0807191FAA1F1B1FA81F14E
:102ED000044A42F82100FFF7DDF805460DE0000046
:102EE000001002400000424200700040FFF7D2F89C
:102EF000401B022801D9032041E42020010591FA5A
:102F0000A1F1B1FA81F108430121B1EB601F02D1B7
:102F1000124800680FE02020010591FAA1F1B1FAF2
:102F200081F108430221B1EB601F02D10B48006A16
:102F300001E00A48406A20210A0592FAA2F2B2FA98
:102F400082F2114301F01F02012191400840002844
:102F5000CCD101E0012012E4002010E40010024076
:102F60002DE9F04704460E4600273546D4F8508038
:102F7000D4F84890E06C00F0FF0A07E0D4F85080E5
:102F8000D4F84890E06C00F0FF0A6D1E08EA0900D2
:102F900020B9BAF1000F01D1002DEFD1354600E084
:102FA0006D1E2068406B00F4005008B1002DF7D171
:102FB000606D012803D1204600F02AFB07460DB9B9
:102FC00007B9042740F2FF5021688863E06C18B10C
:102FD000E06CC0B2BDE8F0873846FBE72DE9F0476A
:102FE00004460E4600273546D4F85080D4F8489061
:102FF000E06C00F0FF0A07E0D4F85080D4F8489065
:10300000E06C00F0FF0A6D1E08EA090020B9BAF171
:10301000000F01D1002DEFD1354600E06D1E206874
:10302000406B00F4805008B1002DF7D1606D03288B
:1030300003D1204600F0ECFA07460DB907B9042782
:1030400040F2FF5021688863E06C18B1E06CC0B2B8
:10305000BDE8F08700BF204600F008F80028FAD14C
:103060003846F5E7704770477047704770B50546BA
:103070000424284602F0B2F80446042C01D10020B2
:1030800070BDFF2C01D10220FAE70120F8E72DE9FD
:10309000F04103460020002293F8204081F856407A
:1030A0009C8CA1F854409C6A220E94090C70C2F3C7
:1030B00083044C7002F003048C709C6AC4F30742D2
:1030C000CA701C8DC4F307220A7193F828204A7134
:1030D000DC6A220E4FF6FF7404EA0214CC80DC6A2C
:1030E000C4F30742CC8844EA1214CC8002F00F04E7
:1030F0000C729C8DC4F30722D4094C72C2F3801465
:103100008C72C2F34014CC72C2F300140C7300240E
:103110004C731C6A14B11C6A012C4DD19407240D08
:103120000C612C24E25C0C6944EA82040C611C6B87
:10313000220E0C6944EA92140C61C2F3C2040C75AD
:1031400002F007044C751C6BC4F3074254098C75DC
:10315000C2F38204CC759407640F0C761C8EC4F302
:1031600007220C7E44EAD2140C760C69641C0025FC
:10317000C1E912450C7ED1E91267A41C012505FAAC
:1031800004F44FEAE47CA6FB045807FB048406FB26
:103190000C44C1E912540D7A0124AC400C650026A0
:1031A000D1E912570C6DA5FB04C807FB048405FB8D
:1031B0000644C1E912C435E01C6A022C31D12C242A
:1031C000E25C9406A40A0C611C6B220E0C6944EAB2
:1031D00002240C611C6BC4F307420C6914430C619C
:1031E0001C8EC4F307220C690025641C45EB050CFA
:1031F0004FF400770026A4FB07580CFB078704FB5D
:10320000067C4FF480672C466546B446A4FB0768ED
:1032100005FB078504FB0C54C1E912647C100C65A6
:1032200000E02920C2F3801401F8194F9406640EBF
:103230004C703024E25C4C7844EAD2144C7002F0BA
:103240007F048C705C6B220ED409CC70C2F34114E5
:103250000C71C2F382044C719407240F8C715C6B67
:10326000C4F307428C7944EA92148C71C2F340147F
:10327000CC7100240C7202F001044C729C8EC4F3D9
:103280000722D4098C72C2F38014CC72C2F34014AA
:103290000C73C2F300144C73C2F381048C7302F0FC
:1032A0000304CC733424E25C54080C7401244C7481
:1032B0009C6B220ECA7419399C6BC4F307424FF6FB
:1032C000FF7404EA0225CD851C8FC4F30722CC8D40
:1032D0001443CC8593F8382015060D63DC6B220E61
:1032E0000C6B44EA02450D63DC6BC4F307420C6BC4
:1032F00044EA02250D639C8FC4F307220C6B144330
:103300000C633C24E25C342462541C6C220E352491
:1033100062541C6CC4F3074215068D634024E45AC2
:10332000C4F307228C6B44EA02458D634024E25CBF
:103330008C6B44EA02258D635C6C220E8C6B14430B
:103340008C635C6CC4F307423C24645C44EA121452
:103350003C256C541407250DCD874424E45AC4F34E
:103360000722CC8F1443CC874424E25C55084024C8
:103370006554012541246554BDE8F08110B504462B
:103380002068406B00F4807058B14FF48070216861
:1033900088630120A0640020E064204600F032FA37
:1033A00044E02068406B00F0020038B10220216840
:1033B0008863E064204600F026FA37E02068406B1E
:1033C00000F0080040B10820216888630420E06410
:1033D000204600F018FA29E02068406B00F0200039
:1033E00040B12020216888630620E064204600F078
:1033F0000AFA1BE02068406B00F0100040B110207A
:10340000216888630520E064204600F0FCF90DE0A7
:103410002068406B00F4007040B14FF400702168E8
:1034200088630720E064204600F0EDF92068C06B57
:103430004CF23A3188432168C86310BD30B58BB077
:1034400004460D4600200A90182104A8FDF7BEF995
:10345000204600F044F80020049005900690079064
:103460000890C320099007A807C88DE807002068C6
:1034700004A90EC901F01EFB204601F047FF0A9087
:103480009DF8280018B19DF828000BB030BD2046EB
:1034900001F0B3FE0A909DF8280010B19DF82800B5
:1034A000F3E729462046FFF7F2FD0A909DF8280031
:1034B00040B9B5F8540001040A460023204601F043
:1034C000DFFF0A90D4E90412A069CDE9001202904E
:1034D00094E80F0001F0EEFA9DF82800D5E7704758
:1034E0002DE9F0478CB004468A4616461F46DDE9B2
:1034F0001485142107A8FDF769F9182101A8FDF723
:1035000065F94FF0000900202168C862A0642065B9
:10351000E064012D02D90120606501E000206065B2
:103520002068C06B40F22A3108432168C8632068D4
:10353000C06A40F008002168C8623348A16D886203
:103540003248A16D086308FB05F29308226802F176
:1035500080015246A06DFEF7D7FA206A022809D1F1
:103560004FF400780202002330463946FCF773FE20
:1035700006460F46CDF81C80102008904020099088
:1035800000200A904FF480600B9007A9206801F09A
:10359000B2FA1021204601F0AFFB8146B9F1000FCD
:1035A00003D048460CB0BDE8F0874FF0FF300190E3
:1035B00008FB05F002909020039002200490002068
:1035C00005900120069001A9206801F043FA012D21
:1035D00002D91220089001E011200890079607A94F
:1035E000206801F088FA012D05D91221204601F04A
:1035F00083FB814604E01121204601F07DFB8146DA
:10360000C4F84C904846CDE70B5000082550000800
:1036100030B585B0044614216846FDF7D7F800257B
:10362000002000900C200190402002900020039088
:103630004FF4806004906946206801F05CFA0C2128
:10364000204601F059FB0546284605B030BD70B54F
:103650008AB004460D460026182104A8FDF7B6F8E6
:10366000206A032801D1272632E0206A28B1206A87
:10367000012802D0206A022829D1B5F5805F01D146
:1036800027260EE0B5F5006F04D1204601F096FF25
:10369000064606E025B9204601F03FFF064600E059
:1036A0002626AEB960680490A0680590E068069090
:1036B000079560690890A069099007A807C88DE878
:1036C0000700206804A90EC901F0F4F900E02926DA
:1036D00030460AB070BD00002DE9F0478CB00446BA
:1036E0008A4617469846DDE91495142107A8FDF788
:1036F0006DF8182101A8FDF769F80026002021685F
:10370000C862A0642065E064012D02D903206065D1
:1037100001E0022060652068C06B40F21A31084366
:103720002168C8633548E16D88623548E16D0863FA
:1037300009FB05F18B08216801F180025146E06D1B
:10374000FEF7E2F92068C06A40F008002168C8620C
:10375000206A022809D14FF400790202002338467A
:103760004146FCF778FD07468846CDF81C901020AE
:1037700008904020099000200A904FF480600B9040
:1037800007A9206801F0B7F91021204601F0B4FA2A
:1037900006461EB130460CB0BDE8F087012D02D8B8
:1037A0001820089001E019200890079707A92068C1
:1037B00001F0A1F9012D05D91921204601F09CFA4B
:1037C000064604E01821204601F096FA06460EB19E
:1037D0003046E0E74FF0FF30019009FB05F0029022
:1037E000902003900020049005900120069001A9EC
:1037F000206801F02FF9E6643046CCE7335000082A
:103800004D50000870477047042808D14FF0E02160
:10381000096941F004014FF0E022116107E04FF027
:10382000E021096921F004014FF0E02211617047A5
:1038300070B504462546681EB0F1807F01D3012093
:103840000FE0681E4FF0E02148610F214FF0FF307C
:1038500000F0C0FD00204FF0E021886107200861E2
:10386000002070BD10B504460CB9012010BDA06940
:1038700000B100E000BF94F8390028B9002084F8B6
:103880003800204600F025F8022084F8390020682E
:10389000C06820F400502168C860204601F0F6FF9F
:1038A0002068006920F49040216808612068406920
:1038B00020F02A00216848612068C06840F4005068
:1038C0002168C8600020E063012084F839000020EE
:1038D000CCE7704700BFFEE72DE9F043A3B00646F2
:1038E0000025A946842102A8FCF770FF48A102A880
:1038F000FCF77CFE314602A8FCF7BBFE012202A9C0
:103900004448006802F008FF10B14FF0010976E06A
:103910000C20002340A206210090184600F080FFF2
:103920000C20002342A206210090184600F078FFE8
:1039300052E0FF224FF400614148FCF71DFF01AB4C
:103940004FF400623E493348006803F02DF810B18F
:103950004FF001094DE00198B0F5006F0ED02D48F1
:10396000006840692B490968C968884201D1012073
:1039700000E0002010B94FF001093AE0002415E002
:103980002F4810F81400012202EB44022C4B9A5CE1
:1039900040EA0220C31707462A4800EBC52000EB87
:1039A00044013A460120FEF759F9641CB4F5806FD2
:1039B000E6D36D1C17480068406900EB8000C0002A
:1039C00014490968C968B0FBF1F01F490978084437
:1039D000C7B2384600F030FB0E48006840690D4918
:1039E0000968C968884201D1012000E00020002850
:1039F0009FD000BF1448007828301349087005484C
:103A0000006802F041FE484623B0BDE8F0830000A4
:103A1000303A2F00240000202020202020202020C9
:103A20002020202020202020202020200000000016
:103A300050726F6772616D6D696E672E00000000D5
:103A4000E0580020009001081C000020F0B5A3B051
:103A5000054600240026842102A8FCF7B7FE35A104
:103A600002A8FCF7C3FD294602A8FCF702FE0122CA
:103A700002A93148006802F04FFE08B1012652E069
:103A80000C2000232DA206210090184600F0C8FE4D
:103A90000C2000232FA206210090184600F0C0FE43
:103AA0002EE0FF224FF400612D48FCF765FE01ABCC
:103AB0004FF400622A492048006802F075FF08B1FF
:103AC00001262AE0274800EBC4214FF40062244875
:103AD000FCF760FD08B101261FE0641C1648006871
:103AE000406900EB8000C00013490968C968B0FB59
:103AF000F1F01D4909780844C7B2384600F09CFA35
:103B00000D48006840690C490968C968884201D1BC
:103B1000012000E000200028C3D000BF1248007838
:103B20002830114908700448006802F0ADFD3046A5
:103B300023B0F0BD303A2F002400002020202020A8
:103B40002020202020202020202020202020202075
:103B500000000000566572696679696E672E000084
:103B6000E0580020009001081C00002010B586B02D
:103B700000240020019012480390C82004901149AD
:103B800009780831C9B20F4A1170084600F054FA9A
:103B90000C2000230CA206210090184600F040FEE5
:103BA0000C2000230EA206210090184600F038FEDB
:103BB00005A901A8FDF7F0FF0446204606B010BD98
:103BC000009001081C000020202020202020202020
:103BD0002020202020202020202020200000000065
:103BE000457261736520466C6173682E00000000A9
:103BF00010B586B0002413490978891CC9B2114A4E
:103C00001170084600F018FA0C2000230EA20621BD
:103C10000090184600F004FE0C20002310A206219C
:103C20000090184600F0FCFD002002900F48049020
:103C30000120059001A902A8FDF7AEFF0446204629
:103C400006B010BD1C0000202020202020202020B5
:103C500020202020202020202020202000000000E4
:103C6000457261736520496E666F2E0000F8070883
:103C700008B5044600F0C2FB0B2C71D2DFE804F05B
:103C800070060F18212A334C555E67000820002368
:103C900035A219460090184600F0C2FD60E00820E9
:103CA000002337A219460090184600F0B9FD57E0EE
:103CB0000820002338A219460090184600F0B0FDF5
:103CC0004EE00820002339A219460090184600F063
:103CD000A7FD45E00820002339A2194600901846A8
:103CE00000F09EFD3CE0102000233BA2194600900E
:103CF000184600F095FD082000233BA20321009008
:103D0000184600F08DFD082000233CA205210090FC
:103D1000184600F085FD23E0082000233CA2194648
:103D20000090184600F07CFD1AE0082000233DA218
:103D300019460090184600F073FD11E0082000239A
:103D40003CA219460090184600F06AFD08E00820E1
:103D500000233DA219460090184600F061FD00BF07
:103D600000BF00BFFEE700004552524F523A534594
:103D7000545F5641494C445F464C414700000000A7
:103D80004552524F523A4745545F5641494C445F61
:103D9000464C4147000000004552524F523A464CB3
:103DA0004153485F554E4C4F434B00004552524FD4
:103DB000523A5345545F4150505F4E414D450000CB
:103DC0004552524F523A4150505F52554E5F464114
:103DD000494C45440000000041707020697320691F
:103DE0006E76616C69642100506C6561736520704A
:103DF0007574202A2E62696E20696E0053442D432B
:103E000072616420616E6420726573746172740003
:103E10004552524F523A494E464F5F4552415345E3
:103E2000000000004552524F523A4150505F4552F7
:103E3000415345004552524F523A4150505F505203
:103E40004F4752414D0000004552524F523A4150A7
:103E5000505F5645524946590000000010B5802178
:103E60000748FCF791FC002407E006482044D0F8FE
:103E7000000803490855601CC4B27F2CF5DB10BD57
:103E8000E057002000F00708002006490968C9B281
:103E9000AA2906D10349491C0968C9B2552900D18C
:103EA0000120704780F8070810B5012480211E48C2
:103EB000FCF76AFC00F060FE08B1204610BD1B490B
:103EC000012208681AA102F0FDFB044624BB18A1D8
:103ED000184802F024FD0446D4B917E016491548E5
:103EE00002F038FE044614B91348807D08B9042056
:103EF000E4E711481630FCF725FE00F0F00028B981
:103F00000D4916310848FCF771FB00E0E6E700BFF9
:103F1000084802F0CAFB04E0002205A1104602F0A6
:103F2000D1FB2046CAE70000605800202000002096
:103F3000303A0000F8630020E062002010B5044928
:103F40000448FCF76BFC08B1012010BD0020FCE721
:103F500060580020E057002010B50446206808494A
:103F60000840B0F1005F09D1606806490860206828
:103F700080F3088800BF08460068804710BD000035
:103F80000000FE2F180000202DE9F04705464FF0F5
:103F900000092846FCF74EFB7E2802D90120BDE827
:103FA000F0872846FCF746FB00F0010028B92846B8
:103FB000FCF740FBC0F3470606E02846FCF73AFB57
:103FC000012101EB5000C6B2002415E015F81400E1
:103FD000012202EB4402AA5C40EA0220C317074612
:103FE0000D4800EB44013A460120FDF737FE08B1C9
:103FF0004FF00109601CC4B2B442E7DB064800EB95
:104000004401002213460120FDF728FE08B14FF0BD
:1040100001094846C3E7000000F8070810B500246E
:1040200045F2AA52002303490120FDF717FE04467A
:10403000204610BD80F807081CB50446082352220C
:1040400004210020009400F0BBFB00200321082382
:104050002246CDE900100421542000F01FFB1CBDB6
:1040600038B504461020002334A2194600901846A3
:1040700000F0D6FB35480078FFF7DEFF082000236C
:1040800033A204210090662000F0CAFBFDF73EFE3B
:1040900010B10320FFF7ECFD4FF49670FCF704FD20
:1040A000FFF7A6FD10B10720FFF7E2FD4FF4967071
:1040B000FCF7FAFCFFF75AFD10B10820FFF7D8FD16
:1040C0002046FFF709FC10B10920FFF7D1FD20467B
:1040D000FFF7BCFC10B10A20FFF7CAFD1D48FFF72F
:1040E00053FF10B10420FFF7C3FDFFF797FF10B196
:1040F0000120FFF7BDFDFDF7A7FDFFF7C5FE10B9D5
:104100000220FFF7B5FD6420FFF796FF0C20002387
:1041100011A206210090184600F082FB0C2000231B
:1041200013A206210090184600F07AFB4FF4487065
:10413000FCF7BAFC1048FFF70FFF38BD4150502084
:104140005570646174696E67000000001C000020F7
:104150002500000060580020202020202020202062
:1041600020202020202020202020202000000000CF
:1041700046696E6973682E000090010830B585B0FD
:10418000054600BF0D48806940F008000B49886172
:104190000846806900F00800009000BF00BF4FF49F
:1041A00040600190012002900320049001A904487E
:1041B000FDF7C2FD0024204605B030BD00100240CE
:1041C000000C014000BFFEE710B504460C4951F851
:1041D00024104A000B4951F82400002100F0E6F8B1
:1041E000094951F824200749091F51F824000021EA
:1041F00000F0DCF801210348001D015510BD00004E
:104200000C7B000810000020087B000870B50546F4
:104210000C460CB9002070BD044850F82500261A41
:104220003146284600F004F8F5E700000C000020B5
:104230002DE9F04104460E461548005D38B9144892
:1042400010380168204688470020BDE8F0811148F9
:1042500050F82400B04219D90F4850F82400B6FB9A
:10426000F0F70B48001F50F8240030F817800025A5
:1042700008E000210648001F50F824007A1920F8B1
:1042800012106D1C4545F4D30120DEE70020DCE769
:1042900014000020087B0008047B000810B50146CC
:1042A0000023002207E00B4850F8210030F81200EC
:1042B00000B15B1C521C084850F821009042F2D813
:1042C00064205843044C54F82140B0FBF4F0C0B2D1
:1042D00010BD0000100000200C7B000870B50446E3
:1042E0000E463146204600F00DF80546681C08B918
:1042F000002070BD024850F824002844F9E700006F
:104300000C0000202DE9F04704460F460025A94681
:104310002348005D20B922481038016820468847AC
:104320001FB94FF0FF30BDE8F0871E4850F8240059
:10433000B7FBF0F61B4850F82400B7FBF0F100FB88
:10434000117000B1761C184850F82400451E22E078
:104350001348001F50F8240030F8150010B909F177
:10436000010901E04FF00009B14513D14FF00008F9
:1043700009E00B48001F50F8240005EB080220F864
:10438000126008F10108B045F3D3064850F8240044
:104390006843C8E76D1E002DDADA4FF0FF30C2E740
:1043A00014000020047B00080C7B000830B5034695
:1043B00001E003F8011B141EA2F10102F9D130BD86
:1043C0007047000002480068C0F3022070470000F8
:1043D0000CED00E010B5002807DA0A07140E054AB4
:1043E00000F00F031B1FD45403E00A07130E024A08
:1043F000135410BD18ED00E000E400E070B5002497
:104400000FE02146002000F08CF8002505E0012196
:10441000002000F051FA681CC5B2802DF7DB601C4B
:10442000C4B2082CEDDB70BD10B53648FFF7A6FE10
:104430000021AE2000F040FA0021D52000F03CFA27
:104440000021802000F038FA0021A82000F034FA82
:1044500000213F2000F030FA0021D32000F02CFA98
:104460000021084600F028FA0021402000F024FA3C
:1044700000218D2000F020FA0021142000F01CFA09
:104480000021202000F018FA0021022000F014FA88
:104490000021A12000F010FA0021C82000F00CFA41
:1044A0000021DA2000F008FA0021122000F004FABE
:1044B0000021812000F000FA00217F2000F0FCF9AB
:1044C0000021D92000F0F8F90021F12000F0F4F9E2
:1044D0000021DB2000F0F0F90021302000F0ECF9A1
:1044E0000021A42000F0E8F90021A62000F0E4F962
:1044F0000021AF2000F0E0F9002000F005F8FFF700
:104500007DFF10BD801A060010B5044624B10021BD
:104510002F2000F0D1F903E000212E2000F0CCF98B
:1045200010BD70B504460D4605F1B001C8B20021BA
:1045300000F0C2F9102141EA1410002100F0BCF98A
:1045400004F00F00002100F0B7F970BD2DE9F0472D
:1045500081460E4690461F4600250024A8F1200003
:10456000C5B2102F23D131464846FFF7DAFF00BF0E
:1045700008E02E4901EB0511085D012100F09CF9CE
:10458000601CC4B2082CF4DB701CC1B24846FFF7B3
:10459000C8FF082408E0254901EB0511085D012149
:1045A00000F08AF9601CC4B2102CF4DB3CE00C2F44
:1045B00027D131464846FFF7B4FF00240AE0C5EB97
:1045C000C5011B4A02EB4101085D012100F074F9AD
:1045D000601CC4B2072CF2DB701CC1B24846FFF766
:1045E000A0FF07240AE0C5EBC501114A02EB410117
:1045F000085D012100F060F9601CC4B20E2CF2DBF2
:1046000012E031464846FFF78CFF00240AE005EB34
:104610004501084A02EB4101085D012100F04CF917
:10462000601CC4B2062CF2DBBDE8F0877C82000877
:104630004A7D0008107B00082DE9F04107460E4630
:10464000154631463846FFF76CFF00240BE005EBBA
:104650000511114A02EB4101891C085D012100F09E
:104660002BF9601CC4B2102CF1DB701CC1B23846AF
:10467000FFF757FF10240BE005EB0511064A02EB8C
:104680004101891C085D012100F016F9601CC4B2CB
:10469000202CF1DBBDE8F0816C8800082DE9F047A3
:1046A00086B00546884691461F46DDE90E4A00263B
:1046B000BAF1000F26D0062C1CD2DFE804F01B1C38
:1046C000150F09034A462FA101A8FBF74FFE18E07A
:1046D0004A462EA101A8FBF749FE12E04A462DA149
:1046E00001A8FBF743FE0CE04A462CA101A8FBF70A
:1046F0003DFE06E000BF4A462AA101A8FBF736FEB0
:1047000000BF26E0062C1CD2DFE804F01B1C150FAE
:1047100009034A4625A101A8FBF728FE18E04A46EE
:1047200023A101A8FBF722FE12E04A4621A101A81D
:10473000FBF71CFE0CE04A461FA101A8FBF716FE82
:1047400006E000BF4A461DA101A8FBF70FFE00BF0F
:1047500000BF10E001A8825D3B4641462846FFF7B6
:10476000F5FE102F03D105F10800C5B201E0A81D28
:10477000C5B2701CC6B201A8805D0028EAD106B09F
:10478000BDE8F08725303564000000002530346432
:104790000000000025303364000000002530326442
:1047A0000000000025303164000000002535640061
:1047B000253464002533640025326400253164000B
:1047C0002DE9F04706460F4614469A46DDF820804C
:1047D000A01E00FB08F0642190FBF1F000F0FF093F
:1047E00039463046FFF79DFE01213F2000F064F876
:1047F00000250CE04D4504DA01212D2000F05CF885
:1048000003E00121212000F057F8681CC5B2A01E6A
:10481000A842EFDC01213F2000F04EF8BDE8F08710
:104820002DE9F04705468A4690469946089F44463A
:104830003AE02078802814DA22783B465146284610
:10484000FFF784FE102F03D105F10800C5B206E082
:104850000C2F02D1E81DC5B201E0A81DC5B2641C31
:1048600022E0002618E006EB0610124911F81000AD
:10487000217888420ED106EB06100E4901EB40006C
:1048800040786178884205D1324651462846FFF784
:10489000D3FE03E0701CC6B2FF2EE4DB00BFA41CF5
:1048A00005F110004844C5B220780028C1D1BDE808
:1048B000F08700006C88000838B505460C460020DB
:1048C00000908DF80150012C02D140208DF800009D
:1048D00002226946782000F0C3FE38BD7047000010
:1048E00010B586B000BF4948406940F48060474930
:1048F00048610846406900F48060019000BF00BF35
:1049000000BF0846406940F002004861084640691F
:1049100000F00200019000BF00BF00BF08468069A0
:1049200040F0100088610846806900F01000019096
:1049300000BF00BF00BF0846806940F020008861CA
:104940000846806900F02000019000BF00BF4FF4CE
:10495000F85002900220039000200490032005905C
:1049600002A92B48FDF7E8F90420029002A9294882
:10497000FDF7E2F928482949086000204860002135
:1049800026488160C160016141610921816124493A
:10499000FEF754FD0446002201213120FDF7BCFB47
:1049A0003120FDF7ACFB1F481F490860002048601C
:1049B00000211D4881608021C1608900016189005A
:1049C0004161002181614FF40051C16100BF134971
:1049D000886508461449486200BF00BF08460F4971
:1049E000C86508461049486200BF0846FDF762F8EE
:1049F00010B1292006B010BD002202213B20FDF796
:104A00008BFB3B20FDF77BFB2046F3E700100240C9
:104A1000001001400014014000800140E801002026
:104A20004802002044040240A002002010B50446C1
:104A30000748FCF78BF908B1292010BD04484460F1
:104A4000FDF738F808B12920F7E70020F5E7000066
:104A5000A002002002460868506248689062D1E9CE
:104A6000020318430B6918434B691843D36A23F0B8
:104A7000F7031843D0620020704701460869C0B2AE
:104A800070470146086800F00300704708B5024609
:104A9000002000900248084400900098006808BD7B
:104AA0001480014010B50248FEF768FC10BD0000FC
:104AB000E80100200FB410B50446DDE90301084306
:104AC000059908430699084307990843089908433C
:104AD000616847F6FF62914308436060002010BCA4
:104AE0005DF814FB01460320086000207047014672
:104AF000D1F880007047024608689060D1E9010350
:104B00001843CB6818430B691843D3686FF30B0342
:104B10001843D0600020704710B586B0002400BF55
:104B20001248806940F01000104988610846806989
:104B300000F01000019000BF00BF80200290002014
:104B40000390012004900320059002A90848FDF776
:104B5000F3F8FFF7C5FE04462CB94FF40061054891
:104B6000FEF775FD0446204606B010BD0010024059
:104B700000100140E801002010B580210148FDF738
:104B80007BFA10BD001001402DE9FC4105460C46A2
:104B900017464FF0000864020020FFF747FF05F0BA
:104BA000030020B300261FE00120410201FB064C58
:104BB00062460023CDE9001018491948FEF790FC21
:104BC0008046B8F1000F05D14FF0FF311448FEF7D1
:104BD000C7F980464FF4007210492846FBF755FD8F
:104BE00005F50075701CC6B2BE42DDD313E04FF46C
:104BF0000070224600232946CDE900070848FEF749
:104C00006FFC8046B8F1000F05D14FF0FF3104482A
:104C1000FEF7A6F980464046BDE8FC81E060002032
:104C2000E80100202DE9FC4105460C4617464FF0EF
:104C3000000864021020FFF7F9FE05F0030020B31E
:104C400000261FE04FF400721B492846FBF71DFDAC
:104C50000120410201FB064C62460023CDE9001011
:104C600015491648FEF738FD8046B8F1000F05D10A
:104C70004FF0FF311148FEF7B1F9804605F5007598
:104C8000701CC6B2BE42DDD313E04FF40070224662
:104C900000232946CDE900070848FEF71DFD8046A0
:104CA000B8F1000F05D14FF0FF310448FEF796F937
:104CB00080464046BDE8FC81E0600020E80100201D
:104CC00030B5014600204FF480320C68646BC4F3A9
:104CD000C01304E00C68646BC4F3C013521E0AB125
:104CE000002BF7D00AB9032030BD40F2FF540D6805
:104CF000AC6300BFF8E700002DE9F04105460E4621
:104D00000027002400BF2868406B00F04500002801
:104D1000F9D02868406B00F0040030B1032704206C
:104D2000296888633846BDE8F0812868406B00F048
:104D3000010028B101270120296888633846F2E77D
:104D40002868FFF79AFEB04202D010273846EAE7FB
:104D500040F2FF502968886300212868FFF796FE1B
:104D600004464548204008B93846DCE704F00040D6
:104D7000B0F1004F01D11C20D5E704F08040B0F124
:104D8000804F01D10920CEE704F00050B0F1005F60
:104D900001D10A20C7E704F08050B0F1805F01D153
:104DA0000B20C0E704F00060B0F1006F01D10C20CF
:104DB000B9E704F08060B0F1806F01D10D20B2E757
:104DC00004F08070B0F1807F01D10E20ABE704F4D5
:104DD0000000B0F5000F01D10F20A4E704F480001B
:104DE000B0F5800F01D110209DE704F40010B0F55C
:104DF000001F01D1112096E704F48010B0F5801F48
:104E000001D112208FE704F40020B0F5002F01D16A
:104E1000132088E704F48020B0F5802F01D11420FE
:104E200081E704F40030B0F5003F01D115207AE7A6
:104E300004F48030B0F5803F01D1162073E704F40C
:104E40000040B0F5004F01D117206CE704F480401A
:104E5000B0F5804F01D1182065E704F40050B0F59B
:104E6000005F01D119205EE704F00800082801D195
:104E70001A2058E7384656E708E0FFFD01460020B3
:104E800000BF0A68526B02F04502002AF9D00A6896
:104E9000526B02F0040222B1032004220B689A63D1
:104EA00070470A68526B02F0010222B10120012210
:104EB0000B689A63F4E740F2FF520B689A6300BFF5
:104EC000EEE70146002000BF0A68526B02F045027F
:104ED000002AF9D00A68526B02F0040222B10320C2
:104EE00004220B689A63704740F2FF520B689A6382
:104EF00000BFF8E72DE9F04104460E4617464FF093
:104F00000008002500BF2068406B00F04500002825
:104F1000F9D02068406B00F0040038B14FF003086E
:104F20000420216888634046BDE8F0812068406B1A
:104F300000F0010030B14FF00108012021688863C2
:104F40004046F1E72068FFF798FDB04203D04FF0EC
:104F500010084046E8E740F2FF50216888630021CE
:104F60002068FFF793FD054605F4604018B9280C4A
:104F700038804046D8E705F40050B0F5005F01D115
:104F80001320D1E705F48040B0F5804F01D1102007
:104F9000CAE705F40040B0F5004F01D10F20C3E788
:104FA0004046C1E730B5014629204FF480320C68F5
:104FB000646B04F045040CB1012400E00024234696
:104FC00009E00C68646B04F045040CB1012400E0B6
:104FD00000242346521E0BB9002AF2D10C68646BE0
:104FE000C4F3800302B123B1032004240D68AC6331
:104FF00030BD0C68646B04F0400424B100204024F0
:105000000D68AC63F4E700BFF2E770B505466C6A63
:105010000120206500BFA06C0028FCD0A06DFEF729
:1050200021F870BD70B50446656AA86DFEF71BF8DF
:1050300070BD70B505466C6A0120206500BFA06C8C
:105040000028FCD0E06DFEF70FF870BD70B5044687
:10505000656AE86DFEF709F870BDF0B58DB00446DD
:105060000E46142108A8FBF7B1FB182102A8FBF794
:10507000ADFB00250027002000900190082008903B
:105080001020099040200A9000200B904FF480607F
:105090000C9008A92068FFF72EFD10212046FFF78D
:1050A0002BFE054615B128460DB0F0BDA08C0004BE
:1050B00008903720099008A92068FFF71CFD3721C8
:1050C0002046FFF719FE05460DB12846ECE74FF0E4
:1050D000FF300290082003903020049002200590B9
:1050E000002006900120079002A92068FFF7B2FC7B
:1050F000002008903320099008A92068FFF7FBFCE6
:1051000033212046FFF7F8FD05460DB12846CBE7D1
:105110000AE02068406B00F4001028B12068FFF717
:10512000E6FC4DF827007F1C2068406B40F22A61A6
:1051300008400028EDD02068406B00F0080028B13E
:1051400008202168886304252846ADE72068406B65
:1051500000F0020028B10220216888630225284659
:10516000A2E72068406B00F0200028B120202168D1
:1051700088630625284697E72068406B00F4007096
:1051800030B14FF4007021688863072528468BE70B
:1051900040F2FF502168886300980006009901F4EE
:1051A0007F4140EA0120009901F47F0140EA11208B
:1051B000009940EA1160706001980006019901F4BD
:1051C0007F4140EA0120019901F47F0140EA11206A
:1051D000019940EA11603060284665E738B5044619
:1051E000002000906946204600F06AF908B1FF20CF
:1051F00038BD0098C0F34320FAE730B587B00446C5
:10520000142102A8FBF7E2FA002501200190206892
:10521000FFF737FC18B92525284607B030BD206AAE
:10522000042829D00020029002200390C02004907E
:10523000002005904FF48060069002A92068FFF7D7
:105240005AFC2046FFF71AFE05460DB12846E4E752
:1052500000212068FFF71AFCA06304212068FFF7F3
:1052600015FCE06308212068FFF710FC20640C2186
:105270002068FFF70BFC6064206A40B1206A0128B7
:1052800005D0206A062802D0206A022810D1032007
:1052900003904020049002A92068FFF72CFC01AA8B
:1052A00003212046FFF726FE05460DB12846B4E748
:1052B000206A042828D0BDF804006062A08C000495
:1052C000029009200390C020049002A92068FFF7F3
:1052D00012FC2046FFF7D2FD05460DB128469CE79B
:1052E00000212068FFF7D2FBA06204212068FFF7AD
:1052F000CDFBE06208212068FFF7C8FB20630C218A
:105300002068FFF7C3FB6063284686E72DE9F0417C
:1053100086B00446142101A8FBF758FA002000903B
:1053200000260025002780462068406820F4807011
:10533000216848602068FFF7D5FB0120FCF71FFCBF
:105340002068406840F48070216848600020019027
:105350000290039004904FF48060059001A92068AA
:10536000FFF7C9FB2046FFF7ABFC00909DF800005B
:1053700020B19DF8000006B0BDE8F0814FF4D57073
:105380000190082002904020039001A92068FFF7B7
:10539000B2FB2046FFF706FE00909DF8000018B90A
:1053A000012020624FF080480020019037200290B9
:1053B00001A92068FFF79FFB37212046FFF79CFCDF
:1053C00000909DF80000002855D13FE0002001909A
:1053D0003720029040200390002004904FF480601A
:1053E000059001A92068FFF786FB37212046FFF7CB
:1053F00083FC00909DF8000010B19DF80000BAE712
:105400001E4848EA000001902920029040200390A5
:10541000002004904FF48060059001A92068FFF7F8
:105420006AFB2046FFF74DFD00909DF8000010B18B
:105430009DF800009FE700212068FFF727FB064644
:10544000012080EAD67080F001076D1C1FB94FF66D
:10545000FF708542BAD34FF6FF70854204D31B20FC
:1054600000909DF8000086E706F08040B0F1804F84
:1054700001D1022020629DF800007CE7000010802E
:10548000F0B585B0064614461D4614216846FBF764
:105490009DF90027009407200190402002900020F1
:1054A00003904FF48060049069463068FFF723FB57
:1054B00007213046FFF720FC0746384605B0F0BD0F
:1054C00070B586B004460D46142101A8FBF77EF99D
:1054D00000261DB92626304606B070BDA08C0004FB
:1054E00001900D20029040200390002004904FF482
:1054F0008060059001A92068FFF7FDFA0D21204684
:10550000FFF7FAFB06460EB13046E5E700212068BA
:10551000FFF7BCFA28603046DEE730B587B00446B6
:10552000142102A8FBF752F90025002000900190F9
:1055300000212068FFF7AAFA00F00070B0F1007FA8
:1055400003D10E25284607B030BD69462046FFF737
:1055500084FD05460DB12846F5E7019800F480303A
:1055600048B3A08C000402903720039040200490A0
:10557000002005904FF48060069002A92068FFF794
:10558000BAFA37212046FFF7B7FB05460DB128468A
:10559000D9E7002002900620039002A92068FFF7B7
:1055A000AAFA06212046FFF7A7FB05460DB12846BB
:1055B000C9E72846C7E725252846C4E730B587B0A0
:1055C0000446142102A8FBF701F9002500200090F1
:1055D000019000212068FFF759FA00F00070B0F147
:1055E000007F03D10E25284607B030BD694620460E
:1055F000FFF733FD05460DB12846F5E7019800F4A5
:10560000802048B3A08C00040290372003904020F3
:105610000490002005904FF48060069002A9206855
:10562000FFF769FA37212046FFF766FB05460DB103
:105630002846D9E7022002900620039002A920689C
:10564000FFF759FA06212046FFF756FB05460DB134
:105650002846C9E72846C7E725252846C4E77047F6
:105660002DE9F04107460C46154600F015F838467E
:1056700000F050F800F03EF8002607E0207800F037
:1056800049F800F037F8641C701C86B2AE42F5DBB6
:1056900000F01CF8BDE8F08110B5012291020A4823
:1056A000FCF7F2FC0122D1020748FCF7EDFC0022D6
:1056B0004FF400610448FCF7E7FC00224FF48061DE
:1056C0000148FCF7E1FC10BD000C014010B50122BF
:1056D00091020748FCF7D8FC00224FF4006104480F
:1056E000FCF7D2FC0122D1020148FCF7CDFC10BD31
:1056F000000C014010B5012291020548FCF7C4FCE2
:1057000000224FF480610248FCF7BEFC10BD00008F
:10571000000C014070B5044600224FF4806113482C
:10572000FCF7B2FC00251DE004F0800028B1012246
:10573000D1020E48FCF7A8FC05E000224FF40061FE
:105740000A48FCF7A1FC6006040E012291020748FA
:10575000FCF79AFC00224FF480610448FCF794FCAB
:10576000681CC5B2082DDFDB70BD0000000C0140D5
:1057700010B5FCF795FC10BD00B597B000BF2B48E5
:10578000806940F00100294988610846806900F07D
:105790000100019000BF00BF00BF0846C06940F093
:1057A0008050C8610846C06900F08050019000BF79
:1057B00000BF01200D9000040E9000200F900220E9
:1057C0001490C10315914FF4E01116910DA8FCF748
:1057D0008BFF08B100BFFEE70F2008900220099060
:1057E00000200A904FF480600B9000200C90022162
:1057F00008A8FCF7A1FD08B100BFFEE70320029056
:105800004FF4004004904FF44070039002A8FCF75E
:10581000D5FC08B100BFFEE70548406820F0E06015
:1058200040F000700249486017B000BD001002400F
:10583000000001401148006840F001000F49086075
:10584000084640680E4908400C4948600846006810
:105850000C490840094908600846006820F4802087
:1058600008600846406820F4FE0048604FF41F00BE
:105870008860C803044908607047000000100240B7
:105880000000FFF8FFFFF6FE08ED00E02DE9F04113
:10589000044600252068006920F44050E168084370
:1058A000216808612169A0680843616940EA01052F
:1058B0002068C06841F20C61884328432168C860B1
:1058C0002068406920F44070A1690843216848615C
:1058D0005F49206888425CD1FCF796FE00EBC0016E
:1058E00001EB001061688900B0FBF1F6FCF78CFE5B
:1058F00000EBC00101EB001061688900B0FBF1F022
:105900006421B0FBF1F000EBC00101EB0010A6EB4D
:105910008000322101EB00106421B0FBF1F000F0B7
:10592000F006FCF771FE00EBC00101EB00106168AE
:105930008900B0FBF1F06421B0FBF1F006EB00163A
:10594000FCF762FE00EBC00101EB0010616889000A
:10595000B0FBF1F7FCF758FE00EBC00101EB0010C3
:1059600061688900B0FBF1F06421B0FBF1F000EB5D
:10597000C00101EB0010A7EB8000322101EB001009
:105980006421B0FBF1F000F00F0030442168886022
:105990005BE0FCF723FE00EBC00101EB0010616847
:1059A0008900B0FBF1F6FCF719FE00EBC00101EB3A
:1059B000001061688900B0FBF1F06421B0FBF1F0E8
:1059C00000EBC00101EB0010A6EB8000322101EBDF
:1059D00000106421B0FBF1F000F0F006FCF7FEFDD2
:1059E00000EBC00101EB001061688900B0FBF1F031
:1059F0006421B0FBF1F006EB0016FCF7EFFD00EBC5
:105A0000C00101EB001061688900B0FBF1F7FCF701
:105A1000E5FD00EBC00101EB001061688900B0FBFF
:105A2000F1F06421B0FBF1F000EBC00101EB0010DC
:105A3000A7EB8000322101EB00106421B0FBF1F0F4
:105A400000F00F00304421688860BDE8F08100005C
:105A50000038014010B586B0044600BF1A4880697E
:105A600040F48040184988610846806900F480400D
:105A7000019000BF00BF00BF0846806940F00400ED
:105A800088610846806900F00400019000BF00BFF3
:105A900048150290022003900320059002A90B48AC
:105AA000FCF74AF90A480B4908600846446000219F
:105AB0008160C16001610821416100218161FDF7C0
:105AC000D1FE06B010BD00000010024000080140E9
:105AD00000380140A401002000BFFEE730380A284A
