:0400CF000208000023
:10008F00EF1F70011E144E6013E4FCFDD3ED945866
:0C009F00EC940250EB0DBD00010C80F051
:0100AB002232
:0700C80043B20843B104221A
:1000AC00C2B2C2B31200C830B2067508007509019D
:0C00BC00E5096401450870EFD2B380EB49
:03000000020003F8
:0C000300787FE4F6D8FD75810902004A00
:10000F000200ACE493A3F8E493A34003F68001F25B
:10001F0008DFF48029E493A3F85407240CC8C333F2
:10002F00C4540F4420C8834004F456800146F6DFC1
:10003F00E4800B01020408102040809000CFE47E82
:10004F00019360BCA3FF543F30E509541FFEE493B6
:10005F00A360010ECF54C025E060A840B8E493A37D
:10006F00FAE493A3F8E493A3C8C582C8CAC583CAA8
:10007F00F0A3C8C582C8CAC583CADFE9DEE780BE60
:0100D300002C
:00000001FF
